{
  "_format": "hh-sol-artifact-1",
  "contractName": "AgentBilling",
  "sourceName": "contracts/AgentBilling.sol",
  "abi": [
    {
      "inputs": [
        {
          "internalType": "address",
          "name": "_paymentToken",
          "type": "address"
        },
        {
          "internalType": "address",
          "name": "_agentRegistry",
          "type": "address"
        }
      ],
      "stateMutability": "nonpayable",
      "type": "constructor"
    },
    {
      "inputs": [
        {
          "internalType": "uint8",
          "name": "got",
          "type": "uint8"
        },
        {
          "internalType": "uint8",
          "name": "expected",
          "type": "uint8"
        }
      ],
      "name": "InvalidEncryptedInput",
      "type": "error"
    },
    {
      "inputs": [
        {
          "internalType": "int32",
          "name": "value",
          "type": "int32"
        }
      ],
      "name": "SecurityZoneOutOfBounds",
      "type": "error"
    },
    {
      "anonymous": false,
      "inputs": [
        {
          "indexed": true,
          "internalType": "address",
          "name": "user",
          "type": "address"
        },
        {
          "indexed": true,
          "internalType": "address",
          "name": "agent",
          "type": "address"
        },
        {
          "indexed": false,
          "internalType": "uint256",
          "name": "timestamp",
          "type": "uint256"
        }
      ],
      "name": "FeeCharged",
      "type": "event"
    },
    {
      "anonymous": false,
      "inputs": [
        {
          "indexed": true,
          "internalType": "address",
          "name": "user",
          "type": "address"
        },
        {
          "indexed": true,
          "internalType": "address",
          "name": "agent",
          "type": "address"
        },
        {
          "indexed": false,
          "internalType": "uint256",
          "name": "timestamp",
          "type": "uint256"
        }
      ],
      "name": "TopUp",
      "type": "event"
    },
    {
      "inputs": [],
      "name": "agentRegistry",
      "outputs": [
        {
          "internalType": "contract IAgentRegistry",
          "name": "",
          "type": "address"
        }
      ],
      "stateMutability": "view",
      "type": "function"
    },
    {
      "inputs": [
        {
          "internalType": "address",
          "name": "user",
          "type": "address"
        },
        {
          "internalType": "bytes",
          "name": "inFee",
          "type": "bytes"
        }
      ],
      "name": "chargeFee",
      "outputs": [
        {
          "internalType": "ebool",
          "name": "sufficient",
          "type": "bytes32"
        }
      ],
      "stateMutability": "nonpayable",
      "type": "function"
    },
    {
      "inputs": [
        {
          "internalType": "address",
          "name": "user",
          "type": "address"
        },
        {
          "internalType": "address",
          "name": "agent",
          "type": "address"
        }
      ],
      "name": "getBalanceHandle",
      "outputs": [
        {
          "internalType": "bytes32",
          "name": "",
          "type": "bytes32"
        }
      ],
      "stateMutability": "view",
      "type": "function"
    },
    {
      "inputs": [],
      "name": "owner",
      "outputs": [
        {
          "internalType": "address",
          "name": "",
          "type": "address"
        }
      ],
      "stateMutability": "view",
      "type": "function"
    },
    {
      "inputs": [],
      "name": "paymentToken",
      "outputs": [
        {
          "internalType": "contract IEncryptedPaymentToken",
          "name": "",
          "type": "address"
        }
      ],
      "stateMutability": "view",
      "type": "function"
    },
    {
      "inputs": [
        {
          "internalType": "address",
          "name": "_token",
          "type": "address"
        }
      ],
      "name": "setPaymentToken",
      "outputs": [],
      "stateMutability": "nonpayable",
      "type": "function"
    },
    {
      "inputs": [
        {
          "internalType": "address",
          "name": "agent",
          "type": "address"
        },
        {
          "internalType": "bytes",
          "name": "inAmount",
          "type": "bytes"
        }
      ],
      "name": "topUp",
      "outputs": [],
      "stateMutability": "nonpayable",
      "type": "function"
    }
  ],
  "bytecode": "0x6080604052348015600e575f5ffd5b50604051610fe2380380610fe2833981016040819052602b916084565b5f80546001600160a01b039384166001600160a01b031991821617909155600180549290931691811691909117909155600280549091163317905560b0565b80516001600160a01b0381168114607f575f5ffd5b919050565b5f5f604083850312156094575f5ffd5b609b83606a565b915060a760208401606a565b90509250929050565b610f25806100bd5f395ff3fe608060405234801561000f575f5ffd5b506004361061007a575f3560e01c8063757a081c11610058578063757a081c146100d55780638da5cb5b1461011b578063f6e2e73d1461012e578063fbc481e214610141575f5ffd5b80630d1cfcae1461007e5780633013ce29146100ae5780636a326ab1146100c0575b5f5ffd5b600154610091906001600160a01b031681565b6040516001600160a01b0390911681526020015b60405180910390f35b5f54610091906001600160a01b031681565b6100d36100ce366004610b8e565b610154565b005b61010d6100e3366004610ba7565b6001600160a01b039182165f90815260036020908152604080832093909416825291909152205490565b6040519081526020016100a5565b600254610091906001600160a01b031681565b61010d61013c366004610bd8565b6101c0565b6100d361014f366004610bd8565b6103b6565b6002546001600160a01b0316331461019f5760405162461bcd60e51b81526020600482015260096024820152683737ba1037bbb732b960b91b60448201526064015b60405180910390fd5b5f80546001600160a01b0319166001600160a01b0392909216919091179055565b6001546040516336124dff60e21b81526001600160a01b0385811660048301523360248301525f92169063d84937fc90604401602060405180830381865afa15801561020e573d5f5f3e3d5ffd5b505050506040513d601f19601f820116820180604052508101906102329190610c56565b6102755760405162461bcd60e51b81526020600482015260146024820152731b9bdd08185d5d1a1bdc9a5e9959081859d95b9d60621b6044820152606401610196565b5f6102b484848080601f0160208091040260200160405190810160405280939291908181526020018383808284375f9201919091525061052992505050565b6001600160a01b0386165f9081526003602090815260408083203384529091529020549091506102e48183610548565b92505f6102fa84846102f55f610589565b61059a565b905061030682826105fb565b6001600160a01b0388165f9081526003602090815260408083203384529091529020819055610335908861063c565b6001600160a01b0387165f908152600360209081526040808320338085529252909120546103629161063c565b61036c843361063c565b60405142815233906001600160a01b038916907f945458c62aa39df7a4d87d6c4dbaaab7de5d870c9a1fe40e2b7571d84f158a8d9060200160405180910390a35050509392505050565b5f546040516326c994c360e21b81526001600160a01b0390911690639b26530c906103eb903390309087908790600401610c75565b5f604051808303815f87803b158015610402575f5ffd5b505af1158015610414573d5f5f3e3d5ffd5b505050505f61045783838080601f0160208091040260200160405190810160405280939291908181526020018383808284375f9201919091525061052992505050565b335f9081526003602090815260408083206001600160a01b038916845290915290205490915061048790826106af565b335f8181526003602090815260408083206001600160a01b038a16845290915290208290556104b6919061063c565b335f9081526003602090815260408083206001600160a01b03881684529091529020546104e3908561063c565b6040514281526001600160a01b0385169033907f57939c7190667481229eac6b5843a99e86f4981171ad74ddf21c5b51e9fc1e0c9060200160405180910390a350505050565b5f5f6105368360056106f0565b90506105418161076d565b9392505050565b5f610552836107e8565b6105625761055f5f610589565b92505b61056b826107e8565b61057b576105785f610589565b91505b6105416005848460126107f1565b5f610594825f610892565b92915050565b5f6105a4846107e8565b6105b4576105b15f6108a0565b93505b6105bd836107e8565b6105cd576105ca5f610589565b92505b6105d6826107e8565b6105e6576105e35f610589565b91505b6105f360058585856108ab565b949350505050565b5f610605836107e8565b610615576106125f610589565b92505b61061e826107e8565b61062e5761062b5f610589565b91505b6105416005848460076107f1565b604051631974142760e21b8152600481018390526001600160a01b038216602482015273ea30c4b8b44078bbf8a6ef5b9f1ec1626c7848d9906365d0509c906044015f604051808303815f87803b158015610695575f5ffd5b505af11580156106a7573d5f5f3e3d5ffd5b505050505050565b5f6106b9836107e8565b6106c9576106c65f610589565b92505b6106d2826107e8565b6106e2576106df5f610589565b91505b6105416005848460086107f1565b604080516080810182525f8082526020820181905291810191909152606080820152604080516080810182525f8082526020820181905291810191909152606080820152838060200190518101906107489190610ce1565b606085015260ff908116604085018190529116602084015290825261054190846108d4565b6040516313fce3b160e11b81525f9073ea30c4b8b44078bbf8a6ef5b9f1ec1626c7848d9906327f9c762906107a89085903390600401610dbe565b6020604051808303815f875af11580156107c4573d5f5f3e3d5ffd5b505050506040513d601f19601f820116820180604052508101906105949190610e30565b5f811515610594565b5f73ea30c4b8b44078bbf8a6ef5b9f1ec1626c7848d9631888debd8684610818888861090b565b604080515f815260208101918290526001600160e01b031960e087901b169091526108499392919060248101610e81565b6020604051808303815f875af1158015610865573d5f5f3e3d5ffd5b505050506040513d601f19601f820116820180604052508101906108899190610e30565b95945050505050565b5f5f6105f384600585610978565b5f610594825f610a1d565b5f73ea30c4b8b44078bbf8a6ef5b9f1ec1626c7848d9631888debd866004610818888888610a35565b8060ff168260ff1614610907576040516367cf307160e01b815260ff808416600483015282166024820152604401610196565b5050565b60408051600280825260608083018452925f929190602083019080368337019050509050835f1c815f8151811061094457610944610edb565b602002602001018181525050825f1c8160018151811061096657610966610edb565b60209081029190910101529392505050565b604080515f8082526020820190925273ea30c4b8b44078bbf8a6ef5b9f1ec1626c7848d990631888debd908590601a906109be898960ff166109b98a610ac6565b610afb565b6040518563ffffffff1660e01b81526004016109dd9493929190610e81565b6020604051808303815f875af11580156109f9573d5f5f3e3d5ffd5b505050506040513d601f19601f820116820180604052508101906105f39190610e30565b5f808315610a29575060015b5f610889825f86610978565b604080516003808252608082019092526060915f9190602082018480368337019050509050845f1c815f81518110610a6f57610a6f610edb565b602002602001018181525050835f1c81600181518110610a9157610a91610edb565b602002602001018181525050825f1c81600281518110610ab357610ab3610edb565b6020908102919091010152949350505050565b5f5f8260030b1215610af1576040516311ead17f60e31b8152600383900b6004820152602401610196565b5063ffffffff1690565b604080516003808252608082019092526060915f919060208201848036833701905050905084815f81518110610b3357610b33610edb565b6020026020010181815250508381600181518110610b5357610b53610edb565b6020026020010181815250508281600281518110610ab357610ab3610edb565b80356001600160a01b0381168114610b89575f5ffd5b919050565b5f60208284031215610b9e575f5ffd5b61054182610b73565b5f5f60408385031215610bb8575f5ffd5b610bc183610b73565b9150610bcf60208401610b73565b90509250929050565b5f5f5f60408486031215610bea575f5ffd5b610bf384610b73565b9250602084013567ffffffffffffffff811115610c0e575f5ffd5b8401601f81018613610c1e575f5ffd5b803567ffffffffffffffff811115610c34575f5ffd5b866020828401011115610c45575f5ffd5b939660209190910195509293505050565b5f60208284031215610c66575f5ffd5b81518015158114610541575f5ffd5b6001600160a01b038581168252841660208201526060604082018190528101829052818360808301375f818301608090810191909152601f909201601f191601019392505050565b805160ff81168114610b89575f5ffd5b634e487b7160e01b5f52604160045260245ffd5b5f5f5f5f60808587031215610cf4575f5ffd5b84519350610d0460208601610cbd565b9250610d1260408601610cbd565b9150606085015167ffffffffffffffff811115610d2d575f5ffd5b8501601f81018713610d3d575f5ffd5b805167ffffffffffffffff811115610d5757610d57610ccd565b604051601f8201601f19908116603f0116810167ffffffffffffffff81118282101715610d8657610d86610ccd565b604052818152828201602001891015610d9d575f5ffd5b8160208401602083015e5f6020838301015280935050505092959194509250565b604081528251604082015260ff602084015116606082015260ff60408401511660808201525f6060840151608060a084015280518060c0850152806020830160e086015e5f60e0828601015260e0601f19601f8301168501019250505061054160208301846001600160a01b03169052565b5f60208284031215610e40575f5ffd5b5051919050565b5f8151808452602084019350602083015f5b82811015610e77578151865260209586019590910190600101610e59565b5093949350505050565b60ff851681525f60208510610ea457634e487b7160e01b5f52602160045260245ffd5b84602083015260806040830152610ebe6080830185610e47565b8281036060840152610ed08185610e47565b979650505050505050565b634e487b7160e01b5f52603260045260245ffdfea26469706673582212201f3c8ce4a0bcdd6bd3aa8defb892b57a5b74e53687e1104e1d70007d9d02b76c64736f6c634300081b0033",
  "linkReferences": {},
  "deployedLinkReferences": {}
}