{
  "_format": "hh-sol-artifact-1",
  "contractName": "AgentSkillVault",
  "sourceName": "contracts/AgentSkillVault.sol",
  "abi": [
    {
      "inputs": [
        {
          "internalType": "address",
          "name": "_registry",
          "type": "address"
        }
      ],
      "stateMutability": "nonpayable",
      "type": "constructor"
    },
    {
      "inputs": [
        {
          "internalType": "uint8",
          "name": "got",
          "type": "uint8"
        },
        {
          "internalType": "uint8",
          "name": "expected",
          "type": "uint8"
        }
      ],
      "name": "InvalidEncryptedInput",
      "type": "error"
    },
    {
      "inputs": [
        {
          "internalType": "int32",
          "name": "value",
          "type": "int32"
        }
      ],
      "name": "SecurityZoneOutOfBounds",
      "type": "error"
    },
    {
      "anonymous": false,
      "inputs": [
        {
          "indexed": true,
          "internalType": "bytes32",
          "name": "licenseId",
          "type": "bytes32"
        },
        {
          "indexed": true,
          "internalType": "uint256",
          "name": "skillIndex",
          "type": "uint256"
        },
        {
          "indexed": false,
          "internalType": "uint256",
          "name": "issuedAt",
          "type": "uint256"
        }
      ],
      "name": "LicenseIssued",
      "type": "event"
    },
    {
      "inputs": [],
      "name": "feeBps",
      "outputs": [
        {
          "internalType": "uint16",
          "name": "",
          "type": "uint16"
        }
      ],
      "stateMutability": "view",
      "type": "function"
    },
    {
      "inputs": [
        {
          "internalType": "bytes32",
          "name": "licenseId",
          "type": "bytes32"
        }
      ],
      "name": "getLicenseHandles",
      "outputs": [
        {
          "components": [
            {
              "internalType": "bytes32",
              "name": "agentOwner",
              "type": "bytes32"
            },
            {
              "internalType": "bytes32",
              "name": "purchasePrice",
              "type": "bytes32"
            },
            {
              "internalType": "bytes32",
              "name": "isValid",
              "type": "bytes32"
            },
            {
              "internalType": "uint256",
              "name": "purchasedAt",
              "type": "uint256"
            },
            {
              "internalType": "uint256",
              "name": "expiresAt",
              "type": "uint256"
            }
          ],
          "internalType": "struct AgentSkillVault.LicenseHandles",
          "name": "h",
          "type": "tuple"
        }
      ],
      "stateMutability": "view",
      "type": "function"
    },
    {
      "inputs": [
        {
          "internalType": "uint256",
          "name": "",
          "type": "uint256"
        }
      ],
      "name": "licenseSaleCount",
      "outputs": [
        {
          "internalType": "uint256",
          "name": "",
          "type": "uint256"
        }
      ],
      "stateMutability": "view",
      "type": "function"
    },
    {
      "inputs": [],
      "name": "owner",
      "outputs": [
        {
          "internalType": "address",
          "name": "",
          "type": "address"
        }
      ],
      "stateMutability": "view",
      "type": "function"
    },
    {
      "inputs": [],
      "name": "paymentToken",
      "outputs": [
        {
          "internalType": "contract IEncryptedPaymentToken",
          "name": "",
          "type": "address"
        }
      ],
      "stateMutability": "view",
      "type": "function"
    },
    {
      "inputs": [
        {
          "internalType": "uint256",
          "name": "publicSkillIndex",
          "type": "uint256"
        },
        {
          "internalType": "bytes",
          "name": "inPaymentAmount",
          "type": "bytes"
        },
        {
          "internalType": "bytes",
          "name": "inAgentOwner",
          "type": "bytes"
        },
        {
          "internalType": "uint256",
          "name": "licenseDurationSeconds",
          "type": "uint256"
        }
      ],
      "name": "purchaseSkill",
      "outputs": [
        {
          "internalType": "bytes32",
          "name": "licenseId",
          "type": "bytes32"
        }
      ],
      "stateMutability": "nonpayable",
      "type": "function"
    },
    {
      "inputs": [],
      "name": "registry",
      "outputs": [
        {
          "internalType": "contract ISkillRegistry",
          "name": "",
          "type": "address"
        }
      ],
      "stateMutability": "view",
      "type": "function"
    },
    {
      "inputs": [
        {
          "internalType": "address",
          "name": "_token",
          "type": "address"
        }
      ],
      "name": "setPaymentToken",
      "outputs": [],
      "stateMutability": "nonpayable",
      "type": "function"
    },
    {
      "inputs": [
        {
          "internalType": "address",
          "name": "to",
          "type": "address"
        },
        {
          "internalType": "bytes",
          "name": "inAmount",
          "type": "bytes"
        }
      ],
      "name": "withdrawFees",
      "outputs": [],
      "stateMutability": "nonpayable",
      "type": "function"
    }
  ],
  "bytecode": "0x60806040525f805461ffff60a01b1916604b60a21b1790553480156021575f5ffd5b50604051611171380380611171833981016040819052603e91606a565b5f80546001600160a01b039092166001600160a01b031992831617905560018054909116331790556095565b5f602082840312156079575f5ffd5b81516001600160a01b0381168114608e575f5ffd5b9392505050565b6110cf806100a25f395ff3fe608060405234801561000f575f5ffd5b5060043610610090575f3560e01c80636a326ab1116100635780636a326ab1146101705780637b103999146101855780638da5cb5b14610197578063c066bd3e146101aa578063c0917d32146101bd575f5ffd5b80631f829ed81461009457806324a9d853146100f15780632576fe1e146101185780633013ce2914610145575b5f5ffd5b6100a76100a2366004610c80565b6101d0565b6040516100e891905f60a082019050825182526020830151602083015260408301516040830152606083015160608301526080830151608083015292915050565b60405180910390f35b5f5461010590600160a01b900461ffff1681565b60405161ffff90911681526020016100e8565b610137610126366004610c80565b60046020525f908152604090205481565b6040519081526020016100e8565b600254610158906001600160a01b031681565b6040516001600160a01b0390911681526020016100e8565b61018361017e366004610cb2565b610240565b005b5f54610158906001600160a01b031681565b600154610158906001600160a01b031681565b6101836101b8366004610d10565b6102ad565b6101376101cb366004610d5f565b6103a2565b6101fd6040518060a001604052805f81526020015f81526020015f81526020015f81526020015f81525090565b5f91825260036020818152604093849020805484526001810154918401919091526002810154938301939093528201546060820152600490910154608082015290565b6001546001600160a01b0316331461028b5760405162461bcd60e51b81526020600482015260096024820152683737ba1037bbb732b960b91b60448201526064015b60405180910390fd5b600280546001600160a01b0319166001600160a01b0392909216919091179055565b6001546001600160a01b031633146102f35760405162461bcd60e51b81526020600482015260096024820152683737ba1037bbb732b960b91b6044820152606401610282565b6002546001600160a01b031661033a5760405162461bcd60e51b815260206004820152600c60248201526b1b9bc81d1bdad95b881cd95d60a21b6044820152606401610282565b6002546040516326c994c360e21b81526001600160a01b0390911690639b26530c90610370903090879087908790600401610de0565b5f604051808303815f87803b158015610387575f5ffd5b505af1158015610399573d5f5f3e3d5ffd5b50505050505050565b5f5f6103e287878080601f0160208091040260200160405190810160405280939291908181526020018383808284375f920191909152506106a892505050565b5f80546040516304388cbd60e41b8152600481018c905292935090916001600160a01b0390911690634388cbd090602401602060405180830381865afa15801561042e573d5f5f3e3d5ffd5b505050506040513d601f19601f820116820180604052508101906104529190610e28565b9050805f61046084836106c7565b90505f61047682866104715f610711565b61071c565b6002549091506001600160a01b0316156104fe5760025f9054906101000a90046001600160a01b03166001600160a01b0316639b26530c33308e8e6040518563ffffffff1660e01b81526004016104d09493929190610de0565b5f604051808303815f87803b1580156104e7575f5ffd5b505af11580156104f9573d5f5f3e3d5ffd5b505050505b60408051602081018e90526bffffffffffffffffffffffff193360601b169181019190915242605482015260740160408051601f1981840301815282825280516020918201205f81815260038352839020601f8d018390048302850183019093528b845298509091610589918c908c90819084018382808284375f9201919091525061077d92505050565b808255610596903361078a565b600181018290556105a7823361078a565b6105b160016107fd565b600282018190556105c2903361078a565b426003820155876105d3575f6105dd565b6105dd8842610e53565b6004808301919091555f8e81526020919091526040812080549161060083610e66565b90915550505f546040516394322a4360e01b8152600481018f90526001600160a01b03909116906394322a43906024015f604051808303815f87803b158015610647575f5ffd5b505af1158015610659573d5f5f3e3d5ffd5b505050508c877f23ae2e550dce51e1cc83ebf12f497db01322dd072fb4a564d87d43824e41b13a4260405161069091815260200190565b60405180910390a35050505050509695505050505050565b5f5f6106b5836005610808565b90506106c081610885565b9392505050565b5f6106d183610900565b6106e1576106de5f610711565b92505b6106ea82610900565b6106fa576106f75f610711565b91505b610708600584846012610909565b90505b92915050565b5f61070b825f6109aa565b5f61072684610900565b610736576107335f6107fd565b93505b61073f83610900565b61074f5761074c5f610711565b92505b61075882610900565b610768576107655f610711565b91505b61077560058585856109b8565b949350505050565b5f5f6106b5836007610808565b604051631974142760e21b8152600481018390526001600160a01b038216602482015273ea30c4b8b44078bbf8a6ef5b9f1ec1626c7848d9906365d0509c906044015f604051808303815f87803b1580156107e3575f5ffd5b505af11580156107f5573d5f5f3e3d5ffd5b505050505050565b5f61070b825f6109e1565b604080516080810182525f8082526020820181905291810191909152606080820152604080516080810182525f8082526020820181905291810191909152606080820152838060200190518101906108609190610ea2565b606085015260ff908116604085018190529116602084015290825261070890846109f9565b6040516313fce3b160e11b81525f9073ea30c4b8b44078bbf8a6ef5b9f1ec1626c7848d9906327f9c762906108c09085903390600401610f7f565b6020604051808303815f875af11580156108dc573d5f5f3e3d5ffd5b505050506040513d601f19601f8201168201806040525081019061070b9190610e28565b5f81151561070b565b5f73ea30c4b8b44078bbf8a6ef5b9f1ec1626c7848d9631888debd86846109308888610a30565b604080515f815260208101918290526001600160e01b031960e087901b16909152610961939291906024810161102b565b6020604051808303815f875af115801561097d573d5f5f3e3d5ffd5b505050506040513d601f19601f820116820180604052508101906109a19190610e28565b95945050505050565b5f5f61077584600585610a9d565b5f73ea30c4b8b44078bbf8a6ef5b9f1ec1626c7848d9631888debd866004610930888888610b42565b5f8083156109ed575060015b5f6109a1825f86610a9d565b8060ff168260ff1614610a2c576040516367cf307160e01b815260ff808416600483015282166024820152604401610282565b5050565b60408051600280825260608083018452925f929190602083019080368337019050509050835f1c815f81518110610a6957610a69611085565b602002602001018181525050825f1c81600181518110610a8b57610a8b611085565b60209081029190910101529392505050565b604080515f8082526020820190925273ea30c4b8b44078bbf8a6ef5b9f1ec1626c7848d990631888debd908590601a90610ae3898960ff16610ade8a610bd3565b610c08565b6040518563ffffffff1660e01b8152600401610b02949392919061102b565b6020604051808303815f875af1158015610b1e573d5f5f3e3d5ffd5b505050506040513d601f19601f820116820180604052508101906107759190610e28565b604080516003808252608082019092526060915f9190602082018480368337019050509050845f1c815f81518110610b7c57610b7c611085565b602002602001018181525050835f1c81600181518110610b9e57610b9e611085565b602002602001018181525050825f1c81600281518110610bc057610bc0611085565b6020908102919091010152949350505050565b5f5f8260030b1215610bfe576040516311ead17f60e31b8152600383900b6004820152602401610282565b5063ffffffff1690565b604080516003808252608082019092526060915f919060208201848036833701905050905084815f81518110610c4057610c40611085565b6020026020010181815250508381600181518110610c6057610c60611085565b6020026020010181815250508281600281518110610bc057610bc0611085565b5f60208284031215610c90575f5ffd5b5035919050565b80356001600160a01b0381168114610cad575f5ffd5b919050565b5f60208284031215610cc2575f5ffd5b61070882610c97565b5f5f83601f840112610cdb575f5ffd5b50813567ffffffffffffffff811115610cf2575f5ffd5b602083019150836020828501011115610d09575f5ffd5b9250929050565b5f5f5f60408486031215610d22575f5ffd5b610d2b84610c97565b9250602084013567ffffffffffffffff811115610d46575f5ffd5b610d5286828701610ccb565b9497909650939450505050565b5f5f5f5f5f5f60808789031215610d74575f5ffd5b86359550602087013567ffffffffffffffff811115610d91575f5ffd5b610d9d89828a01610ccb565b909650945050604087013567ffffffffffffffff811115610dbc575f5ffd5b610dc889828a01610ccb565b979a9699509497949695606090950135949350505050565b6001600160a01b038581168252841660208201526060604082018190528101829052818360808301375f818301608090810191909152601f909201601f191601019392505050565b5f60208284031215610e38575f5ffd5b5051919050565b634e487b7160e01b5f52601160045260245ffd5b8082018082111561070b5761070b610e3f565b5f60018201610e7757610e77610e3f565b5060010190565b805160ff81168114610cad575f5ffd5b634e487b7160e01b5f52604160045260245ffd5b5f5f5f5f60808587031215610eb5575f5ffd5b84519350610ec560208601610e7e565b9250610ed360408601610e7e565b9150606085015167ffffffffffffffff811115610eee575f5ffd5b8501601f81018713610efe575f5ffd5b805167ffffffffffffffff811115610f1857610f18610e8e565b604051601f8201601f19908116603f0116810167ffffffffffffffff81118282101715610f4757610f47610e8e565b604052818152828201602001891015610f5e575f5ffd5b8160208401602083015e5f6020838301015280935050505092959194509250565b604081528251604082015260ff602084015116606082015260ff60408401511660808201525f6060840151608060a084015280518060c0850152806020830160e086015e5f60e0828601015260e0601f19601f830116850101925050506106c060208301846001600160a01b03169052565b5f8151808452602084019350602083015f5b82811015611021578151865260209586019590910190600101611003565b5093949350505050565b60ff851681525f6020851061104e57634e487b7160e01b5f52602160045260245ffd5b846020830152608060408301526110686080830185610ff1565b828103606084015261107a8185610ff1565b979650505050505050565b634e487b7160e01b5f52603260045260245ffdfea26469706673582212209eaedaa28509486babc66262d7eb598b82088d5ed94579b39a6328a64599b3db64736f6c634300081b0033",
  "linkReferences": {},
  "deployedLinkReferences": {}
}