{
  "_format": "hh-sol-artifact-1",
  "contractName": "AIContextManager",
  "sourceName": "contracts/AIContextManager.sol",
  "abi": [
    {
      "inputs": [
        {
          "internalType": "uint8",
          "name": "got",
          "type": "uint8"
        },
        {
          "internalType": "uint8",
          "name": "expected",
          "type": "uint8"
        }
      ],
      "name": "InvalidEncryptedInput",
      "type": "error"
    },
    {
      "inputs": [
        {
          "internalType": "int32",
          "name": "value",
          "type": "int32"
        }
      ],
      "name": "SecurityZoneOutOfBounds",
      "type": "error"
    },
    {
      "anonymous": false,
      "inputs": [
        {
          "indexed": true,
          "internalType": "address",
          "name": "user",
          "type": "address"
        }
      ],
      "name": "ContextWritten",
      "type": "event"
    },
    {
      "anonymous": false,
      "inputs": [
        {
          "indexed": true,
          "internalType": "address",
          "name": "user",
          "type": "address"
        }
      ],
      "name": "MemoryTierUpgraded",
      "type": "event"
    },
    {
      "inputs": [
        {
          "internalType": "address",
          "name": "user",
          "type": "address"
        }
      ],
      "name": "conditionalUpgrade",
      "outputs": [],
      "stateMutability": "nonpayable",
      "type": "function"
    },
    {
      "inputs": [
        {
          "internalType": "address",
          "name": "user",
          "type": "address"
        }
      ],
      "name": "getContextHandles",
      "outputs": [
        {
          "components": [
            {
              "internalType": "bytes32",
              "name": "sessionKey",
              "type": "bytes32"
            },
            {
              "internalType": "bytes32",
              "name": "userId",
              "type": "bytes32"
            },
            {
              "internalType": "bytes32",
              "name": "contextVersion",
              "type": "bytes32"
            },
            {
              "internalType": "bytes32",
              "name": "sentimentScore",
              "type": "bytes32"
            },
            {
              "internalType": "bytes32",
              "name": "trustLevel",
              "type": "bytes32"
            },
            {
              "internalType": "bytes32",
              "name": "memoryTier",
              "type": "bytes32"
            },
            {
              "internalType": "bytes32",
              "name": "isActive",
              "type": "bytes32"
            },
            {
              "internalType": "bytes32",
              "name": "isVerified",
              "type": "bytes32"
            },
            {
              "internalType": "bytes32",
              "name": "authorizedAgent",
              "type": "bytes32"
            }
          ],
          "internalType": "struct IAIContextManager.ContextHandles",
          "name": "handles",
          "type": "tuple"
        }
      ],
      "stateMutability": "view",
      "type": "function"
    },
    {
      "inputs": [
        {
          "components": [
            {
              "internalType": "uint256",
              "name": "ctHash",
              "type": "uint256"
            },
            {
              "internalType": "uint8",
              "name": "securityZone",
              "type": "uint8"
            },
            {
              "internalType": "uint8",
              "name": "utype",
              "type": "uint8"
            },
            {
              "internalType": "bytes",
              "name": "signature",
              "type": "bytes"
            }
          ],
          "internalType": "struct InEuint128",
          "name": "inSessionKey",
          "type": "tuple"
        },
        {
          "components": [
            {
              "internalType": "uint256",
              "name": "ctHash",
              "type": "uint256"
            },
            {
              "internalType": "uint8",
              "name": "securityZone",
              "type": "uint8"
            },
            {
              "internalType": "uint8",
              "name": "utype",
              "type": "uint8"
            },
            {
              "internalType": "bytes",
              "name": "signature",
              "type": "bytes"
            }
          ],
          "internalType": "struct InEuint64",
          "name": "inUserId",
          "type": "tuple"
        },
        {
          "components": [
            {
              "internalType": "uint256",
              "name": "ctHash",
              "type": "uint256"
            },
            {
              "internalType": "uint8",
              "name": "securityZone",
              "type": "uint8"
            },
            {
              "internalType": "uint8",
              "name": "utype",
              "type": "uint8"
            },
            {
              "internalType": "bytes",
              "name": "signature",
              "type": "bytes"
            }
          ],
          "internalType": "struct InEuint8",
          "name": "inSentimentScore",
          "type": "tuple"
        },
        {
          "components": [
            {
              "internalType": "uint256",
              "name": "ctHash",
              "type": "uint256"
            },
            {
              "internalType": "uint8",
              "name": "securityZone",
              "type": "uint8"
            },
            {
              "internalType": "uint8",
              "name": "utype",
              "type": "uint8"
            },
            {
              "internalType": "bytes",
              "name": "signature",
              "type": "bytes"
            }
          ],
          "internalType": "struct InEuint8",
          "name": "inTrustLevel",
          "type": "tuple"
        },
        {
          "components": [
            {
              "internalType": "uint256",
              "name": "ctHash",
              "type": "uint256"
            },
            {
              "internalType": "uint8",
              "name": "securityZone",
              "type": "uint8"
            },
            {
              "internalType": "uint8",
              "name": "utype",
              "type": "uint8"
            },
            {
              "internalType": "bytes",
              "name": "signature",
              "type": "bytes"
            }
          ],
          "internalType": "struct InEbool",
          "name": "inIsVerified",
          "type": "tuple"
        },
        {
          "components": [
            {
              "internalType": "uint256",
              "name": "ctHash",
              "type": "uint256"
            },
            {
              "internalType": "uint8",
              "name": "securityZone",
              "type": "uint8"
            },
            {
              "internalType": "uint8",
              "name": "utype",
              "type": "uint8"
            },
            {
              "internalType": "bytes",
              "name": "signature",
              "type": "bytes"
            }
          ],
          "internalType": "struct InEaddress",
          "name": "inAuthorizedAgent",
          "type": "tuple"
        }
      ],
      "name": "writeContext",
      "outputs": [],
      "stateMutability": "nonpayable",
      "type": "function"
    }
  ],
  "bytecode": "0x6080604052348015600e575f5ffd5b50610f978061001c5f395ff3fe608060405234801561000f575f5ffd5b506004361061003f575f3560e01c80630eee2bc214610043578063b698ad9e14610058578063d8a5fa87146100e0575b5f5ffd5b610056610051366004610cfe565b6100f3565b005b61006b610066366004610e0a565b610267565b6040516100d791905f61012082019050825182526020830151602083015260408301516040830152606083015160608301526080830151608083015260a083015160a083015260c083015160c083015260e083015160e083015261010083015161010083015292915050565b60405180910390f35b6100566100ee366004610e0a565b610322565b335f90815260208190526040902061010a876103bb565b80825561011690610427565b80546101229033610490565b61012b86610503565b6001820181905561013b90610427565b610149816001015433610490565b61015285610569565b6003820181905561016290610427565b610170816003015433610490565b61017984610569565b6004820181905561018990610427565b610197816004015433610490565b6101a0836105cf565b600782018190556101b090610427565b6101be816007015433610490565b6101c782610631565b600882018190556101d790610427565b6101e5816008015433610490565b6101ef6001610697565b600682018190556101ff90610427565b61020d816006015433610490565b610224816002015461021f60016106a2565b6106ad565b6002820181905561023490610427565b60405133907f39a5591fdb139ef185207930cdc07e35245ed9a66a97b290ed5119ea7cca6bb5905f90a250505050505050565b6102ad6040518061012001604052805f81526020015f81526020015f81526020015f81526020015f81526020015f81526020015f81526020015f81526020015f81525090565b6001600160a01b039091165f9081526020818152604091829020805484526001810154918401919091526002810154918301919091526003810154606083015260048101546080830152600581015460a0830152600681015460c0830152600781015460e08301526008015461010082015290565b6001600160a01b0381165f90815260208190526040812060048101549091906103549061034f60016106f5565b610700565b90505f61036f8261036560016106f5565b8560050154610741565b6005840181905590506103828185610490565b6040516001600160a01b038516907f59e10b59bdf45ce7037c9d37a46816819073db5037f743e1382d0577ea770fc0905f90a250505050565b5f6103cb826040015160066107a2565b60408051608080820183525f808352602080840182905283850191909152606092830183905283519182018452855182528086015160ff16908201526006928101929092528084015190820152610421906107de565b92915050565b604051631974142760e21b81526004810182905230602482015273ea30c4b8b44078bbf8a6ef5b9f1ec1626c7848d9906365d0509c906044015f604051808303815f87803b158015610477575f5ffd5b505af1158015610489573d5f5f3e3d5ffd5b5050505050565b604051631974142760e21b8152600481018390526001600160a01b038216602482015273ea30c4b8b44078bbf8a6ef5b9f1ec1626c7848d9906365d0509c906044015f604051808303815f87803b1580156104e9575f5ffd5b505af11580156104fb573d5f5f3e3d5ffd5b505050505050565b5f610513826040015160056107a2565b60408051608080820183525f808352602080840182905283850191909152606092830183905283519182018452855182528086015160ff16908201526005928101929092528084015190820152610421906107de565b5f610579826040015160026107a2565b60408051608080820183525f808352602080840182905283850191909152606092830183905283519182018452855182528086015160ff16908201526002928101929092528084015190820152610421906107de565b5f6105de82604001515f6107a2565b60408051608080820183525f8083526020808401829052838501829052606093840184905284519283018552865183528087015160ff1690830152928101929092528084015190820152610421906107de565b5f610641826040015160076107a2565b60408051608080820183525f808352602080840182905283850191909152606092830183905283519182018452855182528086015160ff16908201526007928101929092528084015190820152610421906107de565b5f610421825f610859565b5f610421825f61087a565b5f6106b783610888565b6106c7576106c45f6106a2565b92505b6106d082610888565b6106e0576106dd5f6106a2565b91505b6106ee600484846008610891565b9392505050565b5f610421825f610929565b5f61070a83610888565b61071a576107175f6106f5565b92505b61072382610888565b610733576107305f6106f5565b91505b6106ee600284846015610891565b5f61074b84610888565b61075b576107585f610697565b93505b61076483610888565b610774576107715f6106f5565b92505b61077d82610888565b61078d5761078a5f6106f5565b91505b61079a6002858585610937565b949350505050565b8060ff168260ff16146107da576040516367cf307160e01b815260ff8084166004830152821660248201526044015b60405180910390fd5b5050565b6040516313fce3b160e11b81525f9073ea30c4b8b44078bbf8a6ef5b9f1ec1626c7848d9906327f9c762906108199085903390600401610e30565b6020604051808303815f875af1158015610835573d5f5f3e3d5ffd5b505050506040513d601f19601f820116820180604052508101906104219190610ea2565b5f808315610865575060015b5f610871825f86610960565b95945050505050565b5f5f61079a84600485610960565b5f811515610421565b5f73ea30c4b8b44078bbf8a6ef5b9f1ec1626c7848d9631888debd86846108b88888610a05565b604080515f815260208101918290526001600160e01b031960e087901b169091526108e99392919060248101610ef3565b6020604051808303815f875af1158015610905573d5f5f3e3d5ffd5b505050506040513d601f19601f820116820180604052508101906108719190610ea2565b5f5f61079a84600285610960565b5f73ea30c4b8b44078bbf8a6ef5b9f1ec1626c7848d9631888debd8660046108b8888888610a72565b604080515f8082526020820190925273ea30c4b8b44078bbf8a6ef5b9f1ec1626c7848d990631888debd908590601a906109a6898960ff166109a18a610b03565b610b38565b6040518563ffffffff1660e01b81526004016109c59493929190610ef3565b6020604051808303815f875af11580156109e1573d5f5f3e3d5ffd5b505050506040513d601f19601f8201168201806040525081019061079a9190610ea2565b60408051600280825260608083018452925f929190602083019080368337019050509050835f1c815f81518110610a3e57610a3e610f4d565b602002602001018181525050825f1c81600181518110610a6057610a60610f4d565b60209081029190910101529392505050565b604080516003808252608082019092526060915f9190602082018480368337019050509050845f1c815f81518110610aac57610aac610f4d565b602002602001018181525050835f1c81600181518110610ace57610ace610f4d565b602002602001018181525050825f1c81600281518110610af057610af0610f4d565b6020908102919091010152949350505050565b5f5f8260030b1215610b2e576040516311ead17f60e31b8152600383900b60048201526024016107d1565b5063ffffffff1690565b604080516003808252608082019092526060915f919060208201848036833701905050905084815f81518110610b7057610b70610f4d565b6020026020010181815250508381600181518110610b9057610b90610f4d565b6020026020010181815250508281600281518110610af057610af0610f4d565b634e487b7160e01b5f52604160045260245ffd5b6040516080810167ffffffffffffffff81118282101715610be757610be7610bb0565b60405290565b604051601f8201601f1916810167ffffffffffffffff81118282101715610c1657610c16610bb0565b604052919050565b803560ff81168114610c2e575f5ffd5b919050565b5f60808284031215610c43575f5ffd5b610c4b610bc4565b905081358152610c5d60208301610c1e565b6020820152610c6e60408301610c1e565b6040820152606082013567ffffffffffffffff811115610c8c575f5ffd5b8201601f81018413610c9c575f5ffd5b803567ffffffffffffffff811115610cb657610cb6610bb0565b610cc9601f8201601f1916602001610bed565b818152856020838501011115610cdd575f5ffd5b816020840160208301375f6020838301015280606085015250505092915050565b5f5f5f5f5f5f60c08789031215610d13575f5ffd5b863567ffffffffffffffff811115610d29575f5ffd5b610d3589828a01610c33565b965050602087013567ffffffffffffffff811115610d51575f5ffd5b610d5d89828a01610c33565b955050604087013567ffffffffffffffff811115610d79575f5ffd5b610d8589828a01610c33565b945050606087013567ffffffffffffffff811115610da1575f5ffd5b610dad89828a01610c33565b935050608087013567ffffffffffffffff811115610dc9575f5ffd5b610dd589828a01610c33565b92505060a087013567ffffffffffffffff811115610df1575f5ffd5b610dfd89828a01610c33565b9150509295509295509295565b5f60208284031215610e1a575f5ffd5b81356001600160a01b03811681146106ee575f5ffd5b604081528251604082015260ff602084015116606082015260ff60408401511660808201525f6060840151608060a084015280518060c0850152806020830160e086015e5f60e0828601015260e0601f19601f830116850101925050506106ee60208301846001600160a01b03169052565b5f60208284031215610eb2575f5ffd5b5051919050565b5f8151808452602084019350602083015f5b82811015610ee9578151865260209586019590910190600101610ecb565b5093949350505050565b60ff851681525f60208510610f1657634e487b7160e01b5f52602160045260245ffd5b84602083015260806040830152610f306080830185610eb9565b8281036060840152610f428185610eb9565b979650505050505050565b634e487b7160e01b5f52603260045260245ffdfea2646970667358221220e7570751dd5cb93d292ef6af6f8913b28f0ec6cde25d8d0c618e0f02d21384cd64736f6c634300081b0033",
  "linkReferences": {},
  "deployedLinkReferences": {}
}