{
  "_format": "hh-sol-artifact-1",
  "contractName": "AIMemoryStore",
  "sourceName": "contracts/AIMemoryStore.sol",
  "abi": [
    {
      "inputs": [
        {
          "internalType": "uint8",
          "name": "got",
          "type": "uint8"
        },
        {
          "internalType": "uint8",
          "name": "expected",
          "type": "uint8"
        }
      ],
      "name": "InvalidEncryptedInput",
      "type": "error"
    },
    {
      "inputs": [
        {
          "internalType": "int32",
          "name": "value",
          "type": "int32"
        }
      ],
      "name": "SecurityZoneOutOfBounds",
      "type": "error"
    },
    {
      "anonymous": false,
      "inputs": [
        {
          "indexed": true,
          "internalType": "address",
          "name": "user",
          "type": "address"
        },
        {
          "indexed": true,
          "internalType": "address",
          "name": "agent",
          "type": "address"
        }
      ],
      "name": "AgentSet",
      "type": "event"
    },
    {
      "anonymous": false,
      "inputs": [
        {
          "indexed": true,
          "internalType": "address",
          "name": "user",
          "type": "address"
        }
      ],
      "name": "MemoryUpdated",
      "type": "event"
    },
    {
      "inputs": [
        {
          "internalType": "address",
          "name": "",
          "type": "address"
        }
      ],
      "name": "authorizedAgent",
      "outputs": [
        {
          "internalType": "address",
          "name": "",
          "type": "address"
        }
      ],
      "stateMutability": "view",
      "type": "function"
    },
    {
      "inputs": [
        {
          "internalType": "address",
          "name": "user",
          "type": "address"
        }
      ],
      "name": "getMemoryHandles",
      "outputs": [
        {
          "components": [
            {
              "internalType": "bytes32",
              "name": "memoryHash",
              "type": "bytes32"
            },
            {
              "internalType": "bytes32",
              "name": "lastInteraction",
              "type": "bytes32"
            },
            {
              "internalType": "bytes32",
              "name": "interactionCount",
              "type": "bytes32"
            },
            {
              "internalType": "bytes32",
              "name": "memoryTier",
              "type": "bytes32"
            }
          ],
          "internalType": "struct IAIMemoryStore.MemoryHandles",
          "name": "handles",
          "type": "tuple"
        }
      ],
      "stateMutability": "view",
      "type": "function"
    },
    {
      "inputs": [
        {
          "internalType": "address",
          "name": "agent",
          "type": "address"
        }
      ],
      "name": "setAgent",
      "outputs": [],
      "stateMutability": "nonpayable",
      "type": "function"
    },
    {
      "inputs": [
        {
          "internalType": "address",
          "name": "user",
          "type": "address"
        },
        {
          "components": [
            {
              "internalType": "uint256",
              "name": "ctHash",
              "type": "uint256"
            },
            {
              "internalType": "uint8",
              "name": "securityZone",
              "type": "uint8"
            },
            {
              "internalType": "uint8",
              "name": "utype",
              "type": "uint8"
            },
            {
              "internalType": "bytes",
              "name": "signature",
              "type": "bytes"
            }
          ],
          "internalType": "struct InEuint128",
          "name": "inMemoryHash",
          "type": "tuple"
        },
        {
          "components": [
            {
              "internalType": "uint256",
              "name": "ctHash",
              "type": "uint256"
            },
            {
              "internalType": "uint8",
              "name": "securityZone",
              "type": "uint8"
            },
            {
              "internalType": "uint8",
              "name": "utype",
              "type": "uint8"
            },
            {
              "internalType": "bytes",
              "name": "signature",
              "type": "bytes"
            }
          ],
          "internalType": "struct InEuint64",
          "name": "inLastInteraction",
          "type": "tuple"
        }
      ],
      "name": "updateMemory",
      "outputs": [],
      "stateMutability": "nonpayable",
      "type": "function"
    }
  ],
  "bytecode": "0x6080604052348015600e575f5ffd5b50610b148061001c5f395ff3fe608060405234801561000f575f5ffd5b506004361061004a575f3560e01c80636b250b2a1461004e578063a1a3ddcb1461009d578063bcf685ed146100dd578063cd2b9e5d146100f2575b5f5ffd5b61006161005c3660046107d7565b610105565b60405161009491908151815260208083015190820152604080830151908201526060918201519181019190915260800190565b60405180910390f35b6100c56100ab3660046107d7565b60016020525f90815260409020546001600160a01b031681565b6040516001600160a01b039091168152602001610094565b6100f06100eb3660046107d7565b61016e565b005b6100f0610100366004610939565b6101c4565b61012c60405180608001604052805f81526020015f81526020015f81526020015f81525090565b6001600160a01b039091165f90815260208181526040918290208054845260018101549184019190915260028101549183019190915260030154606082015290565b335f8181526001602052604080822080546001600160a01b0319166001600160a01b03861690811790915590519092917f840ae875b50d711c2b0916bbe6cf88f87aa6f7968c0a63239825a091cd8a385191a350565b336001600160a01b03841614806101f357506001600160a01b038381165f908152600160205260409020541633145b6102445760405162461bcd60e51b815260206004820152601d60248201527f41494d656d6f727953746f72653a206e6f7420617574686f72697a656400000060448201526064015b60405180910390fd5b6001600160a01b0383165f908152602081905260409020610264836102e0565b808255610271908561034c565b61027a826103bf565b6001820181905561028b908561034c565b6102a2816002015461029d6001610425565b610430565b60028201556040516001600160a01b038516907fd762b2b66e106ab82fbaed193193c4935fd7070dafdaa31b279358590c5234b8905f90a250505050565b5f6102f082604001516006610478565b60408051608080820183525f808352602080840182905283850191909152606092830183905283519182018452855182528086015160ff16908201526006928101929092528084015190820152610346906104af565b92915050565b604051631974142760e21b8152600481018390526001600160a01b038216602482015273ea30c4b8b44078bbf8a6ef5b9f1ec1626c7848d9906365d0509c906044015f604051808303815f87803b1580156103a5575f5ffd5b505af11580156103b7573d5f5f3e3d5ffd5b505050505050565b5f6103cf82604001516005610478565b60408051608080820183525f808352602080840182905283850191909152606092830183905283519182018452855182528086015160ff16908201526005928101929092528084015190820152610346906104af565b5f610346825f61052a565b5f61043a83610540565b61044a576104475f610425565b92505b61045382610540565b610463576104605f610425565b91505b610471600484846008610549565b9392505050565b8060ff168260ff16146104ab576040516367cf307160e01b815260ff80841660048301528216602482015260440161023b565b5050565b6040516313fce3b160e11b81525f9073ea30c4b8b44078bbf8a6ef5b9f1ec1626c7848d9906327f9c762906104ea90859033906004016109ad565b6020604051808303815f875af1158015610506573d5f5f3e3d5ffd5b505050506040513d601f19601f820116820180604052508101906103469190610a1f565b5f5f610538846004856105ea565b949350505050565b5f811515610346565b5f73ea30c4b8b44078bbf8a6ef5b9f1ec1626c7848d9631888debd8684610570888861068f565b604080515f815260208101918290526001600160e01b031960e087901b169091526105a19392919060248101610a70565b6020604051808303815f875af11580156105bd573d5f5f3e3d5ffd5b505050506040513d601f19601f820116820180604052508101906105e19190610a1f565b95945050505050565b604080515f8082526020820190925273ea30c4b8b44078bbf8a6ef5b9f1ec1626c7848d990631888debd908590601a90610630898960ff1661062b8a6106fc565b610731565b6040518563ffffffff1660e01b815260040161064f9493929190610a70565b6020604051808303815f875af115801561066b573d5f5f3e3d5ffd5b505050506040513d601f19601f820116820180604052508101906105389190610a1f565b60408051600280825260608083018452925f929190602083019080368337019050509050835f1c815f815181106106c8576106c8610aca565b602002602001018181525050825f1c816001815181106106ea576106ea610aca565b60209081029190910101529392505050565b5f5f8260030b1215610727576040516311ead17f60e31b8152600383900b600482015260240161023b565b5063ffffffff1690565b604080516003808252608082019092526060915f919060208201848036833701905050905084815f8151811061076957610769610aca565b602002602001018181525050838160018151811061078957610789610aca565b60200260200101818152505082816002815181106107a9576107a9610aca565b6020908102919091010152949350505050565b80356001600160a01b03811681146107d2575f5ffd5b919050565b5f602082840312156107e7575f5ffd5b610471826107bc565b634e487b7160e01b5f52604160045260245ffd5b6040516080810167ffffffffffffffff81118282101715610827576108276107f0565b60405290565b604051601f8201601f1916810167ffffffffffffffff81118282101715610856576108566107f0565b604052919050565b803560ff811681146107d2575f5ffd5b5f6080828403121561087e575f5ffd5b610886610804565b9050813581526108986020830161085e565b60208201526108a96040830161085e565b6040820152606082013567ffffffffffffffff8111156108c7575f5ffd5b8201601f810184136108d7575f5ffd5b803567ffffffffffffffff8111156108f1576108f16107f0565b610904601f8201601f191660200161082d565b818152856020838501011115610918575f5ffd5b816020840160208301375f6020838301015280606085015250505092915050565b5f5f5f6060848603121561094b575f5ffd5b610954846107bc565b9250602084013567ffffffffffffffff81111561096f575f5ffd5b61097b8682870161086e565b925050604084013567ffffffffffffffff811115610997575f5ffd5b6109a38682870161086e565b9150509250925092565b604081528251604082015260ff602084015116606082015260ff60408401511660808201525f6060840151608060a084015280518060c0850152806020830160e086015e5f60e0828601015260e0601f19601f8301168501019250505061047160208301846001600160a01b03169052565b5f60208284031215610a2f575f5ffd5b5051919050565b5f8151808452602084019350602083015f5b82811015610a66578151865260209586019590910190600101610a48565b5093949350505050565b60ff851681525f60208510610a9357634e487b7160e01b5f52602160045260245ffd5b84602083015260806040830152610aad6080830185610a36565b8281036060840152610abf8185610a36565b979650505050505050565b634e487b7160e01b5f52603260045260245ffdfea264697066735822122030b3df605f1b4c0122280c248d8515a9230467b44403d5dec2ce010632733fe164736f6c634300081b0033",
  "linkReferences": {},
  "deployedLinkReferences": {}
}