{
  "_format": "hh-sol-artifact-1",
  "contractName": "EncryptedPaymentToken",
  "sourceName": "contracts/EncryptedPaymentToken.sol",
  "abi": [
    {
      "inputs": [],
      "stateMutability": "nonpayable",
      "type": "constructor"
    },
    {
      "inputs": [
        {
          "internalType": "uint8",
          "name": "got",
          "type": "uint8"
        },
        {
          "internalType": "uint8",
          "name": "expected",
          "type": "uint8"
        }
      ],
      "name": "InvalidEncryptedInput",
      "type": "error"
    },
    {
      "inputs": [
        {
          "internalType": "int32",
          "name": "value",
          "type": "int32"
        }
      ],
      "name": "SecurityZoneOutOfBounds",
      "type": "error"
    },
    {
      "anonymous": false,
      "inputs": [
        {
          "indexed": true,
          "internalType": "address",
          "name": "owner_",
          "type": "address"
        },
        {
          "indexed": true,
          "internalType": "address",
          "name": "spender",
          "type": "address"
        }
      ],
      "name": "Approval",
      "type": "event"
    },
    {
      "anonymous": false,
      "inputs": [
        {
          "indexed": true,
          "internalType": "address",
          "name": "to",
          "type": "address"
        }
      ],
      "name": "Mint",
      "type": "event"
    },
    {
      "anonymous": false,
      "inputs": [
        {
          "indexed": true,
          "internalType": "address",
          "name": "from",
          "type": "address"
        },
        {
          "indexed": true,
          "internalType": "address",
          "name": "to",
          "type": "address"
        }
      ],
      "name": "Transfer",
      "type": "event"
    },
    {
      "inputs": [
        {
          "internalType": "address",
          "name": "spender",
          "type": "address"
        },
        {
          "internalType": "bytes",
          "name": "inAmount",
          "type": "bytes"
        }
      ],
      "name": "encryptedApprove",
      "outputs": [],
      "stateMutability": "nonpayable",
      "type": "function"
    },
    {
      "inputs": [
        {
          "internalType": "address",
          "name": "to",
          "type": "address"
        },
        {
          "internalType": "bytes",
          "name": "inAmount",
          "type": "bytes"
        }
      ],
      "name": "encryptedTransfer",
      "outputs": [],
      "stateMutability": "nonpayable",
      "type": "function"
    },
    {
      "inputs": [
        {
          "internalType": "address",
          "name": "from",
          "type": "address"
        },
        {
          "internalType": "address",
          "name": "to",
          "type": "address"
        },
        {
          "internalType": "bytes",
          "name": "inAmount",
          "type": "bytes"
        }
      ],
      "name": "encryptedTransferFrom",
      "outputs": [],
      "stateMutability": "nonpayable",
      "type": "function"
    },
    {
      "inputs": [
        {
          "internalType": "address",
          "name": "owner_",
          "type": "address"
        },
        {
          "internalType": "address",
          "name": "spender",
          "type": "address"
        }
      ],
      "name": "getAllowanceHandle",
      "outputs": [
        {
          "internalType": "bytes32",
          "name": "",
          "type": "bytes32"
        }
      ],
      "stateMutability": "view",
      "type": "function"
    },
    {
      "inputs": [
        {
          "internalType": "address",
          "name": "user",
          "type": "address"
        }
      ],
      "name": "getBalanceHandle",
      "outputs": [
        {
          "internalType": "bytes32",
          "name": "",
          "type": "bytes32"
        }
      ],
      "stateMutability": "view",
      "type": "function"
    },
    {
      "inputs": [
        {
          "internalType": "address",
          "name": "to",
          "type": "address"
        },
        {
          "internalType": "bytes",
          "name": "inAmount",
          "type": "bytes"
        }
      ],
      "name": "mint",
      "outputs": [],
      "stateMutability": "nonpayable",
      "type": "function"
    },
    {
      "inputs": [
        {
          "internalType": "address",
          "name": "to",
          "type": "address"
        },
        {
          "internalType": "uint256",
          "name": "amount",
          "type": "uint256"
        }
      ],
      "name": "mintPlaintext",
      "outputs": [],
      "stateMutability": "nonpayable",
      "type": "function"
    },
    {
      "inputs": [],
      "name": "owner",
      "outputs": [
        {
          "internalType": "address",
          "name": "",
          "type": "address"
        }
      ],
      "stateMutability": "view",
      "type": "function"
    }
  ],
  "bytecode": "0x6080604052348015600e575f5ffd5b505f80546001600160a01b031916331790556112378061002d5f395ff3fe608060405234801561000f575f5ffd5b5060043610610085575f3560e01c80639b26530c116100585780639b26530c1461013b578063b510391f1461014e578063d4f7830114610161578063fcd48a2414610174575f5ffd5b806314476d9c14610089578063641142f3146100c45780637effc148146100fc5780638da5cb5b14610111575b5f5ffd5b6100b1610097366004610e6c565b6001600160a01b03165f9081526001602052604090205490565b6040519081526020015b60405180910390f35b6100b16100d2366004610e85565b6001600160a01b039182165f90815260026020908152604080832093909416825291909152205490565b61010f61010a366004610efb565b610187565b005b5f54610123906001600160a01b031681565b6040516001600160a01b0390911681526020016100bb565b61010f610149366004610f4a565b61025b565b61010f61015c366004610efb565b6104aa565b61010f61016f366004610fa7565b6105b5565b61010f610182366004610efb565b61067f565b6101c582828080601f0160208091040260200160405190810160405280939291908181526020018383808284375f920191909152506107c992505050565b335f8181526002602090815260408083206001600160a01b038916845290915290208290556101f491906107e8565b335f9081526002602090815260408083206001600160a01b038716845290915290205461022190846107e8565b6040516001600160a01b0384169033907ff37f546c25e850257cc0c94f92bec94a17e2f0e884ddda268a25d8144b70eb6a905f90a3505050565b5f61029a83838080601f0160208091040260200160405190810160405280939291908181526020018383808284375f920191909152506107c992505050565b6001600160a01b0386165f90815260016020526040812054919250906102c0908361085b565b6001600160a01b0387165f908152600260209081526040808320338452909152812054919250906102f1908461085b565b90505f6102fe838361089c565b90505f61030a5f6108de565b90505f6103188387846108ef565b6001600160a01b038b165f9081526001602052604090205490915061033d9082610950565b6001600160a01b03808c165f9081526001602052604080822093909355908b168152205461036b9082610991565b6001600160a01b03808b165f90815260016020908152604080832094909455918d1681526002825282812033825290915220546103a89082610950565b6001600160a01b038b165f818152600260209081526040808320338452825280832094909455918152600190915220546103e2908b6107e8565b6001600160a01b0389165f90815260016020526040902054610404908a6107e8565b6001600160a01b038a165f908152600260209081526040808320338452909152902054610431908b6107e8565b6001600160a01b038a165f9081526002602090815260408083203380855292529091205461045e916107e8565b886001600160a01b03168a6001600160a01b03167f4853ae1b4d437c4255ac16cd3ceda3465975023f27cb141584cd9d44440fed8260405160405180910390a350505050505050505050565b5f546001600160a01b031633146104f45760405162461bcd60e51b81526020600482015260096024820152683737ba1037bbb732b960b91b60448201526064015b60405180910390fd5b5f61053383838080601f0160208091040260200160405190810160405280939291908181526020018383808284375f920191909152506107c992505050565b6001600160a01b0385165f908152600160205260409020549091506105589082610991565b6001600160a01b0385165f90815260016020526040902081905561057c90856107e8565b6040516001600160a01b038516907f3c3284d117c92d0b1699230960384e794dcba184cc48ff114fe4fed20c9b0565905f90a250505050565b5f546001600160a01b031633146105fa5760405162461bcd60e51b81526020600482015260096024820152683737ba1037bbb732b960b91b60448201526064016104eb565b6001600160a01b0382165f908152600160205260409020546106249061061f836108de565b610991565b6001600160a01b0383165f90815260016020526040902081905561064890836107e8565b6040516001600160a01b038316907f3c3284d117c92d0b1699230960384e794dcba184cc48ff114fe4fed20c9b0565905f90a25050565b5f6106be83838080601f0160208091040260200160405190810160405280939291908181526020018383808284375f920191909152506107c992505050565b335f90815260016020526040812054919250906106db908361085b565b90505f6106e75f6108de565b90505f6106f58385846108ef565b335f908152600160205260409020549091506107119082610950565b335f90815260016020526040808220929092556001600160a01b0389168152205461073c9082610991565b6001600160a01b0388165f90815260016020526040808220929092553380825291902054610769916107e8565b6001600160a01b0387165f9081526001602052604090205461078b90886107e8565b6040516001600160a01b0388169033907f4853ae1b4d437c4255ac16cd3ceda3465975023f27cb141584cd9d44440fed82905f90a350505050505050565b5f5f6107d68360056109d2565b90506107e181610a4f565b9392505050565b604051631974142760e21b8152600481018390526001600160a01b038216602482015273ea30c4b8b44078bbf8a6ef5b9f1ec1626c7848d9906365d0509c906044015f604051808303815f87803b158015610841575f5ffd5b505af1158015610853573d5f5f3e3d5ffd5b505050505050565b5f61086583610aca565b610875576108725f6108de565b92505b61087e82610aca565b61088e5761088b5f6108de565b91505b6107e1600584846012610ad3565b5f6108a683610aca565b6108b7576108b46001610b74565b92505b6108c082610aca565b6108d1576108ce6001610b74565b91505b6107e15f8484600a610ad3565b5f6108e9825f610b7f565b92915050565b5f6108f984610aca565b610909576109065f610b74565b93505b61091283610aca565b6109225761091f5f6108de565b92505b61092b82610aca565b61093b576109385f6108de565b91505b6109486005858585610b8d565b949350505050565b5f61095a83610aca565b61096a576109675f6108de565b92505b61097382610aca565b610983576109805f6108de565b91505b6107e1600584846007610ad3565b5f61099b83610aca565b6109ab576109a85f6108de565b92505b6109b482610aca565b6109c4576109c15f6108de565b91505b6107e1600584846008610ad3565b604080516080810182525f8082526020820181905291810191909152606080820152604080516080810182525f808252602082018190529181019190915260608082015283806020019051810190610a2a9190610ff3565b606085015260ff90811660408501819052911660208401529082526107e19084610bb6565b6040516313fce3b160e11b81525f9073ea30c4b8b44078bbf8a6ef5b9f1ec1626c7848d9906327f9c76290610a8a90859033906004016110d0565b6020604051808303815f875af1158015610aa6573d5f5f3e3d5ffd5b505050506040513d601f19601f820116820180604052508101906108e99190611142565b5f8115156108e9565b5f73ea30c4b8b44078bbf8a6ef5b9f1ec1626c7848d9631888debd8684610afa8888610bed565b604080515f815260208101918290526001600160e01b031960e087901b16909152610b2b9392919060248101611193565b6020604051808303815f875af1158015610b47573d5f5f3e3d5ffd5b505050506040513d601f19601f82011682018060405250810190610b6b9190611142565b95945050505050565b5f6108e9825f610c5a565b5f5f61094884600585610c6e565b5f73ea30c4b8b44078bbf8a6ef5b9f1ec1626c7848d9631888debd866004610afa888888610d13565b8060ff168260ff1614610be9576040516367cf307160e01b815260ff8084166004830152821660248201526044016104eb565b5050565b60408051600280825260608083018452925f929190602083019080368337019050509050835f1c815f81518110610c2657610c266111ed565b602002602001018181525050825f1c81600181518110610c4857610c486111ed565b60209081029190910101529392505050565b5f808315610c66575060015b5f610b6b825f865b604080515f8082526020820190925273ea30c4b8b44078bbf8a6ef5b9f1ec1626c7848d990631888debd908590601a90610cb4898960ff16610caf8a610da4565b610dd9565b6040518563ffffffff1660e01b8152600401610cd39493929190611193565b6020604051808303815f875af1158015610cef573d5f5f3e3d5ffd5b505050506040513d601f19601f820116820180604052508101906109489190611142565b604080516003808252608082019092526060915f9190602082018480368337019050509050845f1c815f81518110610d4d57610d4d6111ed565b602002602001018181525050835f1c81600181518110610d6f57610d6f6111ed565b602002602001018181525050825f1c81600281518110610d9157610d916111ed565b6020908102919091010152949350505050565b5f5f8260030b1215610dcf576040516311ead17f60e31b8152600383900b60048201526024016104eb565b5063ffffffff1690565b604080516003808252608082019092526060915f919060208201848036833701905050905084815f81518110610e1157610e116111ed565b6020026020010181815250508381600181518110610e3157610e316111ed565b6020026020010181815250508281600281518110610d9157610d916111ed565b80356001600160a01b0381168114610e67575f5ffd5b919050565b5f60208284031215610e7c575f5ffd5b6107e182610e51565b5f5f60408385031215610e96575f5ffd5b610e9f83610e51565b9150610ead60208401610e51565b90509250929050565b5f5f83601f840112610ec6575f5ffd5b50813567ffffffffffffffff811115610edd575f5ffd5b602083019150836020828501011115610ef4575f5ffd5b9250929050565b5f5f5f60408486031215610f0d575f5ffd5b610f1684610e51565b9250602084013567ffffffffffffffff811115610f31575f5ffd5b610f3d86828701610eb6565b9497909650939450505050565b5f5f5f5f60608587031215610f5d575f5ffd5b610f6685610e51565b9350610f7460208601610e51565b9250604085013567ffffffffffffffff811115610f8f575f5ffd5b610f9b87828801610eb6565b95989497509550505050565b5f5f60408385031215610fb8575f5ffd5b610fc183610e51565b946020939093013593505050565b805160ff81168114610e67575f5ffd5b634e487b7160e01b5f52604160045260245ffd5b5f5f5f5f60808587031215611006575f5ffd5b8451935061101660208601610fcf565b925061102460408601610fcf565b9150606085015167ffffffffffffffff81111561103f575f5ffd5b8501601f8101871361104f575f5ffd5b805167ffffffffffffffff81111561106957611069610fdf565b604051601f8201601f19908116603f0116810167ffffffffffffffff8111828210171561109857611098610fdf565b6040528181528282016020018910156110af575f5ffd5b8160208401602083015e5f6020838301015280935050505092959194509250565b604081528251604082015260ff602084015116606082015260ff60408401511660808201525f6060840151608060a084015280518060c0850152806020830160e086015e5f60e0828601015260e0601f19601f830116850101925050506107e160208301846001600160a01b03169052565b5f60208284031215611152575f5ffd5b5051919050565b5f8151808452602084019350602083015f5b8281101561118957815186526020958601959091019060010161116b565b5093949350505050565b60ff851681525f602085106111b657634e487b7160e01b5f52602160045260245ffd5b846020830152608060408301526111d06080830185611159565b82810360608401526111e28185611159565b979650505050505050565b634e487b7160e01b5f52603260045260245ffdfea264697066735822122016eb18576facef3ec7be75d5aa173821384d78f7b95702c4ccd86da96898b3b264736f6c634300081b0033",
  "linkReferences": {},
  "deployedLinkReferences": {}
}