{
  "_format": "hh-sol-artifact-1",
  "contractName": "PrivPayGateway",
  "sourceName": "contracts/PrivPayGateway.sol",
  "abi": [
    {
      "inputs": [
        {
          "internalType": "address",
          "name": "_paymentToken",
          "type": "address"
        }
      ],
      "stateMutability": "nonpayable",
      "type": "constructor"
    },
    {
      "inputs": [
        {
          "internalType": "uint8",
          "name": "got",
          "type": "uint8"
        },
        {
          "internalType": "uint8",
          "name": "expected",
          "type": "uint8"
        }
      ],
      "name": "InvalidEncryptedInput",
      "type": "error"
    },
    {
      "inputs": [
        {
          "internalType": "int32",
          "name": "value",
          "type": "int32"
        }
      ],
      "name": "SecurityZoneOutOfBounds",
      "type": "error"
    },
    {
      "anonymous": false,
      "inputs": [
        {
          "indexed": true,
          "internalType": "bytes32",
          "name": "escrowId",
          "type": "bytes32"
        },
        {
          "indexed": false,
          "internalType": "uint256",
          "name": "timestamp",
          "type": "uint256"
        }
      ],
      "name": "EscrowCreated",
      "type": "event"
    },
    {
      "anonymous": false,
      "inputs": [
        {
          "indexed": true,
          "internalType": "bytes32",
          "name": "escrowId",
          "type": "bytes32"
        },
        {
          "indexed": false,
          "internalType": "uint256",
          "name": "timestamp",
          "type": "uint256"
        }
      ],
      "name": "EscrowRefunded",
      "type": "event"
    },
    {
      "anonymous": false,
      "inputs": [
        {
          "indexed": true,
          "internalType": "bytes32",
          "name": "escrowId",
          "type": "bytes32"
        },
        {
          "indexed": false,
          "internalType": "uint256",
          "name": "timestamp",
          "type": "uint256"
        }
      ],
      "name": "EscrowReleased",
      "type": "event"
    },
    {
      "anonymous": false,
      "inputs": [
        {
          "indexed": true,
          "internalType": "bytes32",
          "name": "invoiceId",
          "type": "bytes32"
        },
        {
          "indexed": false,
          "internalType": "uint256",
          "name": "timestamp",
          "type": "uint256"
        }
      ],
      "name": "InvoiceCreated",
      "type": "event"
    },
    {
      "anonymous": false,
      "inputs": [
        {
          "indexed": true,
          "internalType": "bytes32",
          "name": "invoiceId",
          "type": "bytes32"
        },
        {
          "indexed": false,
          "internalType": "uint256",
          "name": "timestamp",
          "type": "uint256"
        }
      ],
      "name": "InvoicePaid",
      "type": "event"
    },
    {
      "anonymous": false,
      "inputs": [
        {
          "indexed": true,
          "internalType": "bytes32",
          "name": "subId",
          "type": "bytes32"
        },
        {
          "indexed": false,
          "internalType": "uint256",
          "name": "timestamp",
          "type": "uint256"
        }
      ],
      "name": "SubscriptionCancelled",
      "type": "event"
    },
    {
      "anonymous": false,
      "inputs": [
        {
          "indexed": true,
          "internalType": "bytes32",
          "name": "subId",
          "type": "bytes32"
        },
        {
          "indexed": false,
          "internalType": "uint256",
          "name": "timestamp",
          "type": "uint256"
        }
      ],
      "name": "SubscriptionCharged",
      "type": "event"
    },
    {
      "anonymous": false,
      "inputs": [
        {
          "indexed": true,
          "internalType": "bytes32",
          "name": "subId",
          "type": "bytes32"
        },
        {
          "indexed": false,
          "internalType": "uint256",
          "name": "timestamp",
          "type": "uint256"
        }
      ],
      "name": "SubscriptionCreated",
      "type": "event"
    },
    {
      "inputs": [
        {
          "internalType": "bytes32",
          "name": "subId",
          "type": "bytes32"
        }
      ],
      "name": "cancelSubscription",
      "outputs": [],
      "stateMutability": "nonpayable",
      "type": "function"
    },
    {
      "inputs": [
        {
          "internalType": "bytes32",
          "name": "subId",
          "type": "bytes32"
        },
        {
          "internalType": "bytes",
          "name": "inAmount",
          "type": "bytes"
        }
      ],
      "name": "chargeSubscription",
      "outputs": [],
      "stateMutability": "nonpayable",
      "type": "function"
    },
    {
      "inputs": [
        {
          "internalType": "bytes32",
          "name": "invoiceId",
          "type": "bytes32"
        },
        {
          "internalType": "bytes",
          "name": "inPayment",
          "type": "bytes"
        }
      ],
      "name": "createEscrow",
      "outputs": [
        {
          "internalType": "bytes32",
          "name": "escrowId",
          "type": "bytes32"
        }
      ],
      "stateMutability": "nonpayable",
      "type": "function"
    },
    {
      "inputs": [
        {
          "internalType": "bytes",
          "name": "inAmount",
          "type": "bytes"
        },
        {
          "internalType": "bytes",
          "name": "inRecipient",
          "type": "bytes"
        },
        {
          "internalType": "uint256",
          "name": "expiry",
          "type": "uint256"
        }
      ],
      "name": "createInvoice",
      "outputs": [
        {
          "internalType": "bytes32",
          "name": "invoiceId",
          "type": "bytes32"
        }
      ],
      "stateMutability": "nonpayable",
      "type": "function"
    },
    {
      "inputs": [
        {
          "internalType": "bytes",
          "name": "inAmount",
          "type": "bytes"
        },
        {
          "internalType": "bytes",
          "name": "inRecipient",
          "type": "bytes"
        },
        {
          "internalType": "uint256",
          "name": "intervalSec",
          "type": "uint256"
        }
      ],
      "name": "createSubscription",
      "outputs": [
        {
          "internalType": "bytes32",
          "name": "subId",
          "type": "bytes32"
        }
      ],
      "stateMutability": "nonpayable",
      "type": "function"
    },
    {
      "inputs": [],
      "name": "escrowCount",
      "outputs": [
        {
          "internalType": "uint256",
          "name": "",
          "type": "uint256"
        }
      ],
      "stateMutability": "view",
      "type": "function"
    },
    {
      "inputs": [
        {
          "internalType": "bytes32",
          "name": "id",
          "type": "bytes32"
        }
      ],
      "name": "getEscrowHandles",
      "outputs": [
        {
          "components": [
            {
              "internalType": "bytes32",
              "name": "invoiceId",
              "type": "bytes32"
            },
            {
              "internalType": "bytes32",
              "name": "released",
              "type": "bytes32"
            },
            {
              "internalType": "bytes32",
              "name": "refunded",
              "type": "bytes32"
            },
            {
              "internalType": "address",
              "name": "payer",
              "type": "address"
            }
          ],
          "internalType": "struct PrivPayGateway.EscrowHandles",
          "name": "h",
          "type": "tuple"
        }
      ],
      "stateMutability": "view",
      "type": "function"
    },
    {
      "inputs": [
        {
          "internalType": "bytes32",
          "name": "id",
          "type": "bytes32"
        }
      ],
      "name": "getInvoiceHandles",
      "outputs": [
        {
          "components": [
            {
              "internalType": "bytes32",
              "name": "amount",
              "type": "bytes32"
            },
            {
              "internalType": "bytes32",
              "name": "recipient",
              "type": "bytes32"
            },
            {
              "internalType": "bytes32",
              "name": "isPaid",
              "type": "bytes32"
            },
            {
              "internalType": "uint256",
              "name": "expiry",
              "type": "uint256"
            },
            {
              "internalType": "address",
              "name": "creator",
              "type": "address"
            }
          ],
          "internalType": "struct PrivPayGateway.InvoiceHandles",
          "name": "h",
          "type": "tuple"
        }
      ],
      "stateMutability": "view",
      "type": "function"
    },
    {
      "inputs": [
        {
          "internalType": "bytes32",
          "name": "id",
          "type": "bytes32"
        }
      ],
      "name": "getSubscriptionHandles",
      "outputs": [
        {
          "components": [
            {
              "internalType": "bytes32",
              "name": "amount",
              "type": "bytes32"
            },
            {
              "internalType": "bytes32",
              "name": "recipient",
              "type": "bytes32"
            },
            {
              "internalType": "uint256",
              "name": "interval",
              "type": "uint256"
            },
            {
              "internalType": "uint256",
              "name": "lastCharged",
              "type": "uint256"
            },
            {
              "internalType": "bytes32",
              "name": "active",
              "type": "bytes32"
            },
            {
              "internalType": "address",
              "name": "subscriber",
              "type": "address"
            }
          ],
          "internalType": "struct PrivPayGateway.SubscriptionHandles",
          "name": "h",
          "type": "tuple"
        }
      ],
      "stateMutability": "view",
      "type": "function"
    },
    {
      "inputs": [],
      "name": "invoiceCount",
      "outputs": [
        {
          "internalType": "uint256",
          "name": "",
          "type": "uint256"
        }
      ],
      "stateMutability": "view",
      "type": "function"
    },
    {
      "inputs": [
        {
          "internalType": "bytes32",
          "name": "invoiceId",
          "type": "bytes32"
        },
        {
          "internalType": "bytes",
          "name": "inPayment",
          "type": "bytes"
        }
      ],
      "name": "payInvoice",
      "outputs": [],
      "stateMutability": "nonpayable",
      "type": "function"
    },
    {
      "inputs": [],
      "name": "paymentToken",
      "outputs": [
        {
          "internalType": "contract IEncryptedPaymentToken",
          "name": "",
          "type": "address"
        }
      ],
      "stateMutability": "view",
      "type": "function"
    },
    {
      "inputs": [
        {
          "internalType": "bytes32",
          "name": "escrowId",
          "type": "bytes32"
        }
      ],
      "name": "refundEscrow",
      "outputs": [],
      "stateMutability": "nonpayable",
      "type": "function"
    },
    {
      "inputs": [
        {
          "internalType": "bytes32",
          "name": "escrowId",
          "type": "bytes32"
        }
      ],
      "name": "releaseEscrow",
      "outputs": [],
      "stateMutability": "nonpayable",
      "type": "function"
    },
    {
      "inputs": [],
      "name": "subscriptionCount",
      "outputs": [
        {
          "internalType": "uint256",
          "name": "",
          "type": "uint256"
        }
      ],
      "stateMutability": "view",
      "type": "function"
    }
  ],
  "bytecode": "0x6080604052348015600e575f5ffd5b50604051611592380380611592833981016040819052602b91604e565b5f80546001600160a01b0319166001600160a01b03929092169190911790556079565b5f60208284031215605d575f5ffd5b81516001600160a01b03811681146072575f5ffd5b9392505050565b61150c806100865f395ff3fe608060405234801561000f575f5ffd5b50600436106100f0575f3560e01c806350e7e6b8116100935780638d6253b9116100635780638d6253b91461025f57806393aa620c146102b8578063bf89fc61146102cb578063d21f1ffc146102de575f5ffd5b806350e7e6b8146101cd578063675ac67a146101e05780636b3b67b5146101e95780636c30fd43146101fc575f5ffd5b80631fde6f9d116100ce5780631fde6f9d1461012e5780633013ce291461017d5780633c0a7308146101a757806347aed508146101ba575f5ffd5b806308818ff8146100f45780631346f0c414610109578063173b6d9014610125575b5f5ffd5b610107610102366004611146565b6102f1565b005b61011260015481565b6040519081526020015b60405180910390f35b61011260035481565b61014161013c36600461118e565b61047d565b60405161011c91908151815260208083015190820152604080830151908201526060918201516001600160a01b03169181019190915260800190565b5f5461018f906001600160a01b031681565b6040516001600160a01b03909116815260200161011c565b6101126101b53660046111a5565b6104f1565b6101076101c836600461118e565b610667565b6101076101db366004611146565b610715565b61011260025481565b6101126101f73660046111a5565b610813565b61020f61020a36600461118e565b610964565b60405161011c9190815181526020808301519082015260408083015190820152606080830151908201526080808301519082015260a0918201516001600160a01b03169181019190915260c00190565b61027261026d36600461118e565b6109f8565b60405161011c9190815181526020808301519082015260408083015190820152606080830151908201526080918201516001600160a01b03169181019190915260a00190565b6101126102c6366004611146565b610a7b565b6101076102d936600461118e565b610c11565b6101076102ec36600461118e565b610cee565b5f838152600460208190526040909120908101546001600160a01b03166103535760405162461bcd60e51b81526020600482015260116024820152701a5b9d9bda58d9481b9bdd08199bdd5b99607a1b60448201526064015b60405180910390fd5b60038101541580610368575080600301544211155b61039e5760405162461bcd60e51b8152602060048201526007602482015266195e1c1a5c995960ca1b604482015260640161034a565b5f546004808301546040516326c994c360e21b81526001600160a01b0393841693639b26530c936103d89333939216918991899101611218565b5f604051808303815f87803b1580156103ef575f5ffd5b505af1158015610401573d5f5f3e3d5ffd5b5050505061040f6001610d94565b600282018190556104209033610da5565b6002810154600482015461043d91906001600160a01b0316610da5565b837f744bac895948de4fe06f12163c308968b30c6ecc30c96d0ee02c63c7859857364260405161046f91815260200190565b60405180910390a250505050565b6104ad60405180608001604052805f81526020015f81526020015f81526020015f6001600160a01b031681525090565b5f91825260056020908152604092839020805483526001810154918301919091526002810154928201929092526003909101546001600160a01b0316606082015290565b5f60035f815461050090611274565b91829055506040805160208101929092526001600160601b03193360601b169082015242605482015260740160408051601f1981840301815282825280516020918201205f81815260068352839020601f8a01839004830285018301909352888452935090916105899189908990819084018382808284375f92019190915250610e1892505050565b8082556105969033610da5565b6105d485858080601f0160208091040260200160405190810160405280939291908181526020018383808284375f92019190915250610e3792505050565b600182018190556105e59033610da5565b600281018390554260038201556105fc6001610d94565b6004820181905561060d9033610da5565b6005810180546001600160a01b0319163317905560405182907f53bf053b614add9faae699ded191daaf48d693547dbc5d213139f26556417dc2906106559042815260200190565b60405180910390a25095945050505050565b5f81815260056020526040902060038101546001600160a01b031633146106bc5760405162461bcd60e51b81526020600482015260096024820152683737ba103830bcb2b960b91b604482015260640161034a565b6106c66001610d94565b600282018190556106d79033610da5565b817f21cabc2fff910e5afd1e2bcb22ff2b165a41ab0afbaf364f07aaf2f7787fb9084260405161070991815260200190565b60405180910390a25050565b5f83815260066020526040902060028101546003820154610736919061128c565b4210156107715760405162461bcd60e51b8152602060048201526009602482015268746f6f206561726c7960b81b604482015260640161034a565b5f5460058201546040516326c994c360e21b81526001600160a01b0392831692639b26530c926107ac92911690339088908890600401611218565b5f604051808303815f87803b1580156107c3575f5ffd5b505af11580156107d5573d5f5f3e3d5ffd5b505042600384018190556040519081528692507ff597c4bd1c959e80b8ff0f44e5f1b4ee34eaa611c2feb099daed704a8db05754915060200161046f565b5f60015f815461082290611274565b91829055506040805160208101929092526001600160601b03193360601b169082015242605482015260740160408051601f1981840301815282825280516020918201205f81815260048352839020601f8a01839004830285018301909352888452935090916108ab9189908990819084018382808284375f92019190915250610e1892505050565b8082556108b89033610da5565b6108f685858080601f0160208091040260200160405190810160405280939291908181526020018383808284375f92019190915250610e3792505050565b600182018190556109079033610da5565b6109105f610d94565b6002820155600381018390556004810180546001600160a01b0319163317905560405182907f75756b8a89b6db9ec9fc9c8fa80337cd088c2b5ffb246def84ba9078c7382f03906106559042815260200190565b6109a06040518060c001604052805f81526020015f81526020015f81526020015f81526020015f81526020015f6001600160a01b031681525090565b5f918252600660209081526040928390208054835260018101549183019190915260028101549282019290925260038201546060820152600482015460808201526005909101546001600160a01b031660a082015290565b610a2e6040518060a001604052805f81526020015f81526020015f81526020015f81526020015f6001600160a01b031681525090565b5f91825260046020818152604093849020805484526001810154918401919091526002810154938301939093526003830154606083015291909101546001600160a01b0316608082015290565b5f838152600460208190526040822001546001600160a01b0316610ad55760405162461bcd60e51b81526020600482015260116024820152701a5b9d9bda58d9481b9bdd08199bdd5b99607a1b604482015260640161034a565b60025f8154610ae390611274565b9182905550604051610b1a919086903390602001928352602083019190915260601b6001600160601b031916604082015260540190565b60408051601f198184030181529082905280516020909101205f546326c994c360e21b83529092506001600160a01b031690639b26530c90610b66903390309088908890600401611218565b5f604051808303815f87803b158015610b7d575f5ffd5b505af1158015610b8f573d5f5f3e3d5ffd5b5050505f8281526005602052604081208681556003810180546001600160a01b031916331790559150610bc190610d94565b6001820155610bcf5f610d94565b600282015560405142815282907f7e67c01ec788affdc2654bc24fd9aee81611f323d1d3cb69a92ebd9decfaffc89060200160405180910390a2509392505050565b5f81815260056020908152604080832080548452600492839052922001546001600160a01b0316338114610c775760405162461bcd60e51b815260206004820152600d60248201526c1b9bdd081c9958da5c1a595b9d609a1b604482015260640161034a565b610c816001610d94565b60018301819055610c929033610da5565b60018201546003830154610caf91906001600160a01b0316610da5565b827f9410e7c5b50451e4b5bd5ce113fd48abebd7070eb9d080df08b115b7cdc4165042604051610ce191815260200190565b60405180910390a2505050565b5f81815260066020526040902060058101546001600160a01b03163314610d485760405162461bcd60e51b815260206004820152600e60248201526d3737ba1039bab139b1b934b132b960911b604482015260640161034a565b610d515f610d94565b60048201819055610d629033610da5565b817fbb4f0dbdc96de2d877e081023e973592b695eec37810f9904634c44b0dedac6a4260405161070991815260200190565b5f610d9f825f610e44565b92915050565b604051631974142760e21b8152600481018390526001600160a01b038216602482015273ea30c4b8b44078bbf8a6ef5b9f1ec1626c7848d9906365d0509c906044015f604051808303815f87803b158015610dfe575f5ffd5b505af1158015610e10573d5f5f3e3d5ffd5b505050505050565b5f5f610e25836005610e65565b9050610e3081610ee2565b9392505050565b5f5f610e25836007610e65565b5f808315610e50575060015b5f610e5c825f86610f5d565b95945050505050565b604080516080810182525f8082526020820181905291810191909152606080820152604080516080810182525f808252602082018190529181019190915260608082015283806020019051810190610ebd91906112c8565b606085015260ff9081166040850181905291166020840152908252610e30908461100a565b6040516313fce3b160e11b81525f9073ea30c4b8b44078bbf8a6ef5b9f1ec1626c7848d9906327f9c76290610f1d90859033906004016113a5565b6020604051808303815f875af1158015610f39573d5f5f3e3d5ffd5b505050506040513d601f19601f82011682018060405250810190610d9f9190611417565b604080515f8082526020820190925273ea30c4b8b44078bbf8a6ef5b9f1ec1626c7848d990631888debd908590601a90610fa3898960ff16610f9e8a611041565b611076565b6040518563ffffffff1660e01b8152600401610fc29493929190611468565b6020604051808303815f875af1158015610fde573d5f5f3e3d5ffd5b505050506040513d601f19601f820116820180604052508101906110029190611417565b949350505050565b8060ff168260ff161461103d576040516367cf307160e01b815260ff80841660048301528216602482015260440161034a565b5050565b5f5f8260030b121561106c576040516311ead17f60e31b8152600383900b600482015260240161034a565b5063ffffffff1690565b604080516003808252608082019092526060915f919060208201848036833701905050905084815f815181106110ae576110ae6114c2565b60200260200101818152505083816001815181106110ce576110ce6114c2565b60200260200101818152505082816002815181106110ee576110ee6114c2565b6020908102919091010152949350505050565b5f5f83601f840112611111575f5ffd5b50813567ffffffffffffffff811115611128575f5ffd5b60208301915083602082850101111561113f575f5ffd5b9250929050565b5f5f5f60408486031215611158575f5ffd5b83359250602084013567ffffffffffffffff811115611175575f5ffd5b61118186828701611101565b9497909650939450505050565b5f6020828403121561119e575f5ffd5b5035919050565b5f5f5f5f5f606086880312156111b9575f5ffd5b853567ffffffffffffffff8111156111cf575f5ffd5b6111db88828901611101565b909650945050602086013567ffffffffffffffff8111156111fa575f5ffd5b61120688828901611101565b96999598509660400135949350505050565b6001600160a01b038581168252841660208201526060604082018190528101829052818360808301375f818301608090810191909152601f909201601f191601019392505050565b634e487b7160e01b5f52601160045260245ffd5b5f6001820161128557611285611260565b5060010190565b80820180821115610d9f57610d9f611260565b805160ff811681146112af575f5ffd5b919050565b634e487b7160e01b5f52604160045260245ffd5b5f5f5f5f608085870312156112db575f5ffd5b845193506112eb6020860161129f565b92506112f96040860161129f565b9150606085015167ffffffffffffffff811115611314575f5ffd5b8501601f81018713611324575f5ffd5b805167ffffffffffffffff81111561133e5761133e6112b4565b604051601f8201601f19908116603f0116810167ffffffffffffffff8111828210171561136d5761136d6112b4565b604052818152828201602001891015611384575f5ffd5b8160208401602083015e5f6020838301015280935050505092959194509250565b604081528251604082015260ff602084015116606082015260ff60408401511660808201525f6060840151608060a084015280518060c0850152806020830160e086015e5f60e0828601015260e0601f19601f83011685010192505050610e3060208301846001600160a01b03169052565b5f60208284031215611427575f5ffd5b5051919050565b5f8151808452602084019350602083015f5b8281101561145e578151865260209586019590910190600101611440565b5093949350505050565b60ff851681525f6020851061148b57634e487b7160e01b5f52602160045260245ffd5b846020830152608060408301526114a5608083018561142e565b82810360608401526114b7818561142e565b979650505050505050565b634e487b7160e01b5f52603260045260245ffdfea26469706673582212207675bf015e8144bf54ce9276c58da65cb7369cdcaf996812f87acc0c6f4131e464736f6c634300081b0033",
  "linkReferences": {},
  "deployedLinkReferences": {}
}