{
  "_format": "hh-sol-artifact-1",
  "contractName": "SettlementLedger",
  "sourceName": "contracts/SettlementLedger.sol",
  "abi": [
    {
      "inputs": [
        {
          "internalType": "address",
          "name": "_agentRegistry",
          "type": "address"
        }
      ],
      "stateMutability": "nonpayable",
      "type": "constructor"
    },
    {
      "inputs": [
        {
          "internalType": "uint8",
          "name": "got",
          "type": "uint8"
        },
        {
          "internalType": "uint8",
          "name": "expected",
          "type": "uint8"
        }
      ],
      "name": "InvalidEncryptedInput",
      "type": "error"
    },
    {
      "anonymous": false,
      "inputs": [
        {
          "indexed": true,
          "internalType": "bytes32",
          "name": "id",
          "type": "bytes32"
        },
        {
          "indexed": false,
          "internalType": "uint256",
          "name": "timestamp",
          "type": "uint256"
        }
      ],
      "name": "SettlementRecorded",
      "type": "event"
    },
    {
      "inputs": [],
      "name": "agentRegistry",
      "outputs": [
        {
          "internalType": "contract IAgentRegistryLedger",
          "name": "",
          "type": "address"
        }
      ],
      "stateMutability": "view",
      "type": "function"
    },
    {
      "inputs": [
        {
          "internalType": "bytes32",
          "name": "id",
          "type": "bytes32"
        }
      ],
      "name": "getSettlementHandles",
      "outputs": [
        {
          "components": [
            {
              "internalType": "bytes32",
              "name": "amount",
              "type": "bytes32"
            },
            {
              "internalType": "bytes32",
              "name": "reasonHash",
              "type": "bytes32"
            },
            {
              "internalType": "address",
              "name": "payer",
              "type": "address"
            },
            {
              "internalType": "address",
              "name": "payee",
              "type": "address"
            },
            {
              "internalType": "uint256",
              "name": "timestamp",
              "type": "uint256"
            }
          ],
          "internalType": "struct SettlementLedger.SettlementHandles",
          "name": "h",
          "type": "tuple"
        }
      ],
      "stateMutability": "view",
      "type": "function"
    },
    {
      "inputs": [
        {
          "internalType": "address",
          "name": "user",
          "type": "address"
        }
      ],
      "name": "getUserSettlementCount",
      "outputs": [
        {
          "internalType": "uint256",
          "name": "",
          "type": "uint256"
        }
      ],
      "stateMutability": "view",
      "type": "function"
    },
    {
      "inputs": [
        {
          "internalType": "address",
          "name": "user",
          "type": "address"
        },
        {
          "internalType": "uint256",
          "name": "index",
          "type": "uint256"
        }
      ],
      "name": "getUserSettlementId",
      "outputs": [
        {
          "internalType": "bytes32",
          "name": "",
          "type": "bytes32"
        }
      ],
      "stateMutability": "view",
      "type": "function"
    },
    {
      "inputs": [
        {
          "internalType": "address",
          "name": "payer",
          "type": "address"
        },
        {
          "internalType": "address",
          "name": "payee",
          "type": "address"
        },
        {
          "internalType": "bytes",
          "name": "inAmount",
          "type": "bytes"
        },
        {
          "internalType": "bytes",
          "name": "inReasonHash",
          "type": "bytes"
        }
      ],
      "name": "recordSettlement",
      "outputs": [
        {
          "internalType": "bytes32",
          "name": "id",
          "type": "bytes32"
        }
      ],
      "stateMutability": "nonpayable",
      "type": "function"
    },
    {
      "inputs": [],
      "name": "settlementCount",
      "outputs": [
        {
          "internalType": "uint256",
          "name": "",
          "type": "uint256"
        }
      ],
      "stateMutability": "view",
      "type": "function"
    }
  ],
  "bytecode": "0x6080604052348015600e575f5ffd5b50604051610a76380380610a76833981016040819052602b91604e565b5f80546001600160a01b0319166001600160a01b03929092169190911790556079565b5f60208284031215605d575f5ffd5b81516001600160a01b03811681146072575f5ffd5b9392505050565b6109f0806100865f395ff3fe608060405234801561000f575f5ffd5b5060043610610060575f3560e01c806302628a2f14610064578063037eca761461008a5780630d1cfcae146100935780635126bb28146100bd578063a67933bc1461011e578063ff80cc2914610146575b5f5ffd5b6100776100723660046106ac565b610159565b6040519081526020015b60405180910390f35b61007760015481565b5f546100a5906001600160a01b031681565b6040516001600160a01b039091168152602001610081565b6100d06100cb3660046106d4565b610193565b604051610081919081518152602080830151908201526040808301516001600160a01b0390811691830191909152606080840151909116908201526080918201519181019190915260a00190565b61007761012c3660046106eb565b6001600160a01b03165f9081526003602052604090205490565b610077610154366004610749565b610224565b6001600160a01b0382165f908152600360205260408120805483908110610182576101826107d9565b905f5260205f200154905092915050565b6101d26040518060a001604052805f81526020015f81526020015f6001600160a01b031681526020015f6001600160a01b031681526020015f81525090565b5f9182526002602081815260409384902080548452600181015491840191909152908101546001600160a01b039081169383019390935260038101549092166060820152600490910154608082015290565b5f80546040516336124dff60e21b81526001600160a01b0389811660048301523360248301529091169063d84937fc90604401602060405180830381865afa158015610272573d5f5f3e3d5ffd5b505050506040513d601f19601f8201168201806040525081019061029691906107ed565b6102de5760405162461bcd60e51b81526020600482015260146024820152731b9bdd08185d5d1a1bdc9a5e9959081859d95b9d60621b60448201526064015b60405180910390fd5b60015f81546102ec9061080c565b91829055506040805160208101929092526bffffffffffffffffffffffff193360601b169082015242605482015260740160408051601f1981840301815282825280516020918201205f81815260028352839020601f89018390048302850183019093528784529350909161037a9188908890819084018382808284375f920191909152506104c192505050565b80825561038790896104e0565b805461039390886104e0565b6103d184848080601f0160208091040260200160405190810160405280939291908181526020018383808284375f9201919091525061055392505050565b600182018190556103e290896104e0565b6103f08160010154886104e0565b6002810180546001600160a01b03808b166001600160a01b0319928316811790935560038085018054928c169290931682179092554260048501555f83815260209283526040812080546001810182559082529290209091018490551461047c576001600160a01b0387165f908152600360209081526040822080546001810182559083529120018290555b817fd730fa6295fcddf5d12b93e74649a07e6a8b81563e2fde27ec25bad9e54d878a426040516104ae91815260200190565b60405180910390a2509695505050505050565b5f5f6104ce83600561055c565b90506104d9816105d9565b9392505050565b604051631974142760e21b8152600481018390526001600160a01b038216602482015273ea30c4b8b44078bbf8a6ef5b9f1ec1626c7848d9906365d0509c906044015f604051808303815f87803b158015610539575f5ffd5b505af115801561054b573d5f5f3e3d5ffd5b505050505050565b5f5f6104ce8360065b604080516080810182525f8082526020820181905291810191909152606080820152604080516080810182525f8082526020820181905291810191909152606080820152838060200190518101906105b49190610854565b606085015260ff90811660408501819052911660208401529082526104d9908461065a565b6040516313fce3b160e11b81525f9073ea30c4b8b44078bbf8a6ef5b9f1ec1626c7848d9906327f9c762906106149085903390600401610931565b6020604051808303815f875af1158015610630573d5f5f3e3d5ffd5b505050506040513d601f19601f8201168201806040525081019061065491906109a3565b92915050565b8060ff168260ff161461068d576040516367cf307160e01b815260ff8084166004830152821660248201526044016102d5565b5050565b80356001600160a01b03811681146106a7575f5ffd5b919050565b5f5f604083850312156106bd575f5ffd5b6106c683610691565b946020939093013593505050565b5f602082840312156106e4575f5ffd5b5035919050565b5f602082840312156106fb575f5ffd5b6104d982610691565b5f5f83601f840112610714575f5ffd5b50813567ffffffffffffffff81111561072b575f5ffd5b602083019150836020828501011115610742575f5ffd5b9250929050565b5f5f5f5f5f5f6080878903121561075e575f5ffd5b61076787610691565b955061077560208801610691565b9450604087013567ffffffffffffffff811115610790575f5ffd5b61079c89828a01610704565b909550935050606087013567ffffffffffffffff8111156107bb575f5ffd5b6107c789828a01610704565b979a9699509497509295939492505050565b634e487b7160e01b5f52603260045260245ffd5b5f602082840312156107fd575f5ffd5b815180151581146104d9575f5ffd5b5f6001820161082957634e487b7160e01b5f52601160045260245ffd5b5060010190565b805160ff811681146106a7575f5ffd5b634e487b7160e01b5f52604160045260245ffd5b5f5f5f5f60808587031215610867575f5ffd5b8451935061087760208601610830565b925061088560408601610830565b9150606085015167ffffffffffffffff8111156108a0575f5ffd5b8501601f810187136108b0575f5ffd5b805167ffffffffffffffff8111156108ca576108ca610840565b604051601f8201601f19908116603f0116810167ffffffffffffffff811182821017156108f9576108f9610840565b604052818152828201602001891015610910575f5ffd5b8160208401602083015e5f6020838301015280935050505092959194509250565b604081528251604082015260ff602084015116606082015260ff60408401511660808201525f6060840151608060a084015280518060c0850152806020830160e086015e5f60e0828601015260e0601f19601f830116850101925050506104d960208301846001600160a01b03169052565b5f602082840312156109b3575f5ffd5b505191905056fea26469706673582212204ad825307fcddfb03e2a48f6633b1550edb436623954a3f3c19474e169650bd164736f6c634300081b0033",
  "linkReferences": {},
  "deployedLinkReferences": {}
}