{
  "_format": "hh-sol-artifact-1",
  "contractName": "SkillRegistry",
  "sourceName": "contracts/SkillRegistry.sol",
  "abi": [
    {
      "inputs": [],
      "stateMutability": "nonpayable",
      "type": "constructor"
    },
    {
      "inputs": [
        {
          "internalType": "uint8",
          "name": "got",
          "type": "uint8"
        },
        {
          "internalType": "uint8",
          "name": "expected",
          "type": "uint8"
        }
      ],
      "name": "InvalidEncryptedInput",
      "type": "error"
    },
    {
      "inputs": [
        {
          "internalType": "int32",
          "name": "value",
          "type": "int32"
        }
      ],
      "name": "SecurityZoneOutOfBounds",
      "type": "error"
    },
    {
      "anonymous": false,
      "inputs": [
        {
          "indexed": true,
          "internalType": "uint256",
          "name": "publicIndex",
          "type": "uint256"
        },
        {
          "indexed": false,
          "internalType": "uint256",
          "name": "listedAt",
          "type": "uint256"
        }
      ],
      "name": "SkillListed",
      "type": "event"
    },
    {
      "inputs": [
        {
          "internalType": "uint256",
          "name": "publicIndex",
          "type": "uint256"
        }
      ],
      "name": "getEncryptedPrice",
      "outputs": [
        {
          "internalType": "bytes32",
          "name": "",
          "type": "bytes32"
        }
      ],
      "stateMutability": "view",
      "type": "function"
    },
    {
      "inputs": [
        {
          "internalType": "uint256",
          "name": "publicIndex",
          "type": "uint256"
        }
      ],
      "name": "getSkillHandles",
      "outputs": [
        {
          "components": [
            {
              "internalType": "bytes32",
              "name": "skillId",
              "type": "bytes32"
            },
            {
              "internalType": "bytes32",
              "name": "developer",
              "type": "bytes32"
            },
            {
              "internalType": "bytes32",
              "name": "basePrice",
              "type": "bytes32"
            },
            {
              "internalType": "bytes32",
              "name": "maxSupply",
              "type": "bytes32"
            },
            {
              "internalType": "bytes32",
              "name": "activeUsers",
              "type": "bytes32"
            },
            {
              "internalType": "bytes32",
              "name": "isActive",
              "type": "bytes32"
            }
          ],
          "internalType": "struct ISkillRegistry.SkillHandles",
          "name": "h",
          "type": "tuple"
        }
      ],
      "stateMutability": "view",
      "type": "function"
    },
    {
      "inputs": [
        {
          "internalType": "uint256",
          "name": "publicIndex",
          "type": "uint256"
        }
      ],
      "name": "incrementActiveUsers",
      "outputs": [],
      "stateMutability": "nonpayable",
      "type": "function"
    },
    {
      "inputs": [
        {
          "internalType": "bytes",
          "name": "inSkillId",
          "type": "bytes"
        },
        {
          "internalType": "bytes",
          "name": "inDeveloper",
          "type": "bytes"
        },
        {
          "internalType": "bytes",
          "name": "inBasePrice",
          "type": "bytes"
        },
        {
          "internalType": "bytes",
          "name": "inMaxSupply",
          "type": "bytes"
        }
      ],
      "name": "listSkill",
      "outputs": [
        {
          "internalType": "uint256",
          "name": "publicIndex",
          "type": "uint256"
        }
      ],
      "stateMutability": "nonpayable",
      "type": "function"
    },
    {
      "inputs": [],
      "name": "owner",
      "outputs": [
        {
          "internalType": "address",
          "name": "",
          "type": "address"
        }
      ],
      "stateMutability": "view",
      "type": "function"
    },
    {
      "inputs": [
        {
          "internalType": "address",
          "name": "_vault",
          "type": "address"
        }
      ],
      "name": "setVault",
      "outputs": [],
      "stateMutability": "nonpayable",
      "type": "function"
    },
    {
      "inputs": [],
      "name": "totalSkillsListed",
      "outputs": [
        {
          "internalType": "uint256",
          "name": "",
          "type": "uint256"
        }
      ],
      "stateMutability": "view",
      "type": "function"
    },
    {
      "inputs": [],
      "name": "vault",
      "outputs": [
        {
          "internalType": "address",
          "name": "",
          "type": "address"
        }
      ],
      "stateMutability": "view",
      "type": "function"
    }
  ],
  "bytecode": "0x6080604052348015600e575f5ffd5b50600380546001600160a01b03191633179055610d8e8061002e5f395ff3fe608060405234801561000f575f5ffd5b5060043610610085575f3560e01c80638da5cb5b116100585780638da5cb5b146100ef57806394322a431461011a578063fbfa77cf1461012d578063fdd1156414610140575f5ffd5b80634388cbd01461008957806348531053146100be5780636817031b146100d157806385bdfdde146100e6575b5f5ffd5b6100ab6100973660046109ad565b5f9081526020819052604090206002015490565b6040519081526020015b60405180910390f35b6100ab6100cc366004610a09565b61019e565b6100e46100df366004610ad7565b61036a565b005b6100ab60015481565b600354610102906001600160a01b031681565b6040516001600160a01b0390911681526020016100b5565b6100e46101283660046109ad565b6103d7565b600254610102906001600160a01b031681565b61015361014e3660046109ad565b61044b565b6040516100b591905f60c082019050825182526020830151602083015260408301516040830152606083015160608301526080830151608083015260a083015160a083015292915050565b5f60015f81546101ad90610afd565b91829055505f81815260208181526040918290208251601f8d018390048302810183019093528b83529293506101fd91908c908c90819084018382808284375f920191909152506104cb92505050565b80825561020a90336104ea565b61024888888080601f0160208091040260200160405190810160405280939291908181526020018383808284375f9201919091525061055d92505050565b6001820181905561025990336104ea565b61029786868080601f0160208091040260200160405190810160405280939291908181526020018383808284375f9201919091525061056a92505050565b600282018190556102a890336104ea565b6102e684848080601f0160208091040260200160405190810160405280939291908181526020018383808284375f920191909152506104cb92505050565b600382018190556102f790336104ea565b6103005f610577565b600482015561030f6001610588565b6005820181905561032090336104ea565b426006820181905560405190815282907f506595021b77bb35b4df62b2869f3be58ab4d74cdaace23563f6669b0ceb6dcd9060200160405180910390a25098975050505050505050565b6003546001600160a01b031633146103b55760405162461bcd60e51b81526020600482015260096024820152683737ba1037bbb732b960b91b60448201526064015b60405180910390fd5b600280546001600160a01b0319166001600160a01b0392909216919091179055565b6002546001600160a01b0316331461041d5760405162461bcd60e51b81526020600482015260096024820152681b9bdd081d985d5b1d60ba1b60448201526064016103ac565b5f81815260208190526040902060048101546104429061043d6001610577565b610593565b60049091015550565b61047e6040518060c001604052805f81526020015f81526020015f81526020015f81526020015f81526020015f81525090565b5f918252602082815260409283902080548352600181015491830191909152600281015492820192909252600382015460608201526004820154608082015260059091015460a082015290565b5f5f6104d88360046105d4565b90506104e381610651565b9392505050565b604051631974142760e21b8152600481018390526001600160a01b038216602482015273ea30c4b8b44078bbf8a6ef5b9f1ec1626c7848d9906365d0509c906044015f604051808303815f87803b158015610543575f5ffd5b505af1158015610555573d5f5f3e3d5ffd5b505050505050565b5f5f6104d88360076105d4565b5f5f6104d88360056105d4565b5f610582825f6106cc565b92915050565b5f610582825f6106e2565b5f61059d83610703565b6105ad576105aa5f610577565b92505b6105b682610703565b6105c6576105c35f610577565b91505b6104e360048484600861070c565b604080516080810182525f8082526020820181905291810191909152606080820152604080516080810182525f80825260208201819052918101919091526060808201528380602001905181019061062c9190610b4a565b606085015260ff90811660408501819052911660208401529082526104e390846107a4565b6040516313fce3b160e11b81525f9073ea30c4b8b44078bbf8a6ef5b9f1ec1626c7848d9906327f9c7629061068c9085903390600401610c27565b6020604051808303815f875af11580156106a8573d5f5f3e3d5ffd5b505050506040513d601f19601f820116820180604052508101906105829190610c99565b5f5f6106da846004856107db565b949350505050565b5f8083156106ee575060015b5f6106fa825f866107db565b95945050505050565b5f811515610582565b5f73ea30c4b8b44078bbf8a6ef5b9f1ec1626c7848d9631888debd86846107338888610880565b604080515f815260208101918290526001600160e01b031960e087901b169091526107649392919060248101610cea565b6020604051808303815f875af1158015610780573d5f5f3e3d5ffd5b505050506040513d601f19601f820116820180604052508101906106fa9190610c99565b8060ff168260ff16146107d7576040516367cf307160e01b815260ff8084166004830152821660248201526044016103ac565b5050565b604080515f8082526020820190925273ea30c4b8b44078bbf8a6ef5b9f1ec1626c7848d990631888debd908590601a90610821898960ff1661081c8a6108ed565b610922565b6040518563ffffffff1660e01b81526004016108409493929190610cea565b6020604051808303815f875af115801561085c573d5f5f3e3d5ffd5b505050506040513d601f19601f820116820180604052508101906106da9190610c99565b60408051600280825260608083018452925f929190602083019080368337019050509050835f1c815f815181106108b9576108b9610d44565b602002602001018181525050825f1c816001815181106108db576108db610d44565b60209081029190910101529392505050565b5f5f8260030b1215610918576040516311ead17f60e31b8152600383900b60048201526024016103ac565b5063ffffffff1690565b604080516003808252608082019092526060915f919060208201848036833701905050905084815f8151811061095a5761095a610d44565b602002602001018181525050838160018151811061097a5761097a610d44565b602002602001018181525050828160028151811061099a5761099a610d44565b6020908102919091010152949350505050565b5f602082840312156109bd575f5ffd5b5035919050565b5f5f83601f8401126109d4575f5ffd5b50813567ffffffffffffffff8111156109eb575f5ffd5b602083019150836020828501011115610a02575f5ffd5b9250929050565b5f5f5f5f5f5f5f5f6080898b031215610a20575f5ffd5b883567ffffffffffffffff811115610a36575f5ffd5b610a428b828c016109c4565b909950975050602089013567ffffffffffffffff811115610a61575f5ffd5b610a6d8b828c016109c4565b909750955050604089013567ffffffffffffffff811115610a8c575f5ffd5b610a988b828c016109c4565b909550935050606089013567ffffffffffffffff811115610ab7575f5ffd5b610ac38b828c016109c4565b999c989b5096995094979396929594505050565b5f60208284031215610ae7575f5ffd5b81356001600160a01b03811681146104e3575f5ffd5b5f60018201610b1a57634e487b7160e01b5f52601160045260245ffd5b5060010190565b805160ff81168114610b31575f5ffd5b919050565b634e487b7160e01b5f52604160045260245ffd5b5f5f5f5f60808587031215610b5d575f5ffd5b84519350610b6d60208601610b21565b9250610b7b60408601610b21565b9150606085015167ffffffffffffffff811115610b96575f5ffd5b8501601f81018713610ba6575f5ffd5b805167ffffffffffffffff811115610bc057610bc0610b36565b604051601f8201601f19908116603f0116810167ffffffffffffffff81118282101715610bef57610bef610b36565b604052818152828201602001891015610c06575f5ffd5b8160208401602083015e5f6020838301015280935050505092959194509250565b604081528251604082015260ff602084015116606082015260ff60408401511660808201525f6060840151608060a084015280518060c0850152806020830160e086015e5f60e0828601015260e0601f19601f830116850101925050506104e360208301846001600160a01b03169052565b5f60208284031215610ca9575f5ffd5b5051919050565b5f8151808452602084019350602083015f5b82811015610ce0578151865260209586019590910190600101610cc2565b5093949350505050565b60ff851681525f60208510610d0d57634e487b7160e01b5f52602160045260245ffd5b84602083015260806040830152610d276080830185610cb0565b8281036060840152610d398185610cb0565b979650505050505050565b634e487b7160e01b5f52603260045260245ffdfea2646970667358221220b87d43b7e9df70e18c9b82cf9c3acbe9e1a4fc94a200050acba090d8581bf21064736f6c634300081b0033",
  "linkReferences": {},
  "deployedLinkReferences": {}
}