{
  "_format": "hh-sol-artifact-1",
  "contractName": "SkillAccessController",
  "sourceName": "contracts/SkillAccessController.sol",
  "abi": [
    {
      "inputs": [
        {
          "internalType": "uint8",
          "name": "got",
          "type": "uint8"
        },
        {
          "internalType": "uint8",
          "name": "expected",
          "type": "uint8"
        }
      ],
      "name": "InvalidEncryptedInput",
      "type": "error"
    },
    {
      "inputs": [
        {
          "internalType": "int32",
          "name": "value",
          "type": "int32"
        }
      ],
      "name": "SecurityZoneOutOfBounds",
      "type": "error"
    },
    {
      "anonymous": false,
      "inputs": [
        {
          "indexed": true,
          "internalType": "bytes32",
          "name": "licenseId",
          "type": "bytes32"
        },
        {
          "indexed": false,
          "internalType": "uint256",
          "name": "grantedAt",
          "type": "uint256"
        }
      ],
      "name": "PermissionGranted",
      "type": "event"
    },
    {
      "inputs": [
        {
          "internalType": "bytes32",
          "name": "licenseId",
          "type": "bytes32"
        },
        {
          "internalType": "bytes",
          "name": "inAgentAddress",
          "type": "bytes"
        },
        {
          "internalType": "bytes",
          "name": "inMaxUses",
          "type": "bytes"
        }
      ],
      "name": "grantAgentPermission",
      "outputs": [],
      "stateMutability": "nonpayable",
      "type": "function"
    },
    {
      "inputs": [
        {
          "internalType": "bytes32",
          "name": "licenseId",
          "type": "bytes32"
        },
        {
          "internalType": "bytes",
          "name": "inCallingAgent",
          "type": "bytes"
        }
      ],
      "name": "verifyAndConsumePermission",
      "outputs": [
        {
          "internalType": "ebool",
          "name": "",
          "type": "bytes32"
        }
      ],
      "stateMutability": "nonpayable",
      "type": "function"
    }
  ],
  "bytecode": "0x6080604052348015600e575f5ffd5b50610c728061001c5f395ff3fe608060405234801561000f575f5ffd5b5060043610610034575f3560e01c80630308de1b1461003857806337fb3ff11461004d575b5f5ffd5b61004b610046366004610944565b610072565b005b61006061005b3660046109bd565b610176565b60405190815260200160405180910390f35b5f85815260208181526040918290208251601f8701839004830281018301909352858352916100ba9187908790819084018382808284375f9201919091525061024692505050565b8082556100c7903361025e565b6100d160016102d1565b600182018190556100e2903361025e565b61012083838080601f0160208091040260200160405190810160405280939291908181526020018383808284375f920191909152506102e292505050565b60028201819055610131903361025e565b426003820181905560405190815286907ff122c5d4daf7ea15cd1f023a8b8ad44a6c0c4a4e973e019e18bfffbd1f0b0dc39060200160405180910390a2505050505050565b5f838152602081815260408083208151601f86018490048402810184019092528482529183916101bf9187908790819084018382808284375f9201919091525061024692505050565b90505f6101cf835f0154836102ef565b90505f6101e884600201546101e35f610330565b61033b565b90505f6101f5838361037c565b90505f6102026001610330565b90505f61020e5f610330565b90505f61021c8484846103be565b905061022c88600201548261041f565b6002909801979097555090955050505050505b9392505050565b5f5f610253836007610460565b905061023f816104dd565b604051631974142760e21b8152600481018390526001600160a01b038216602482015273ea30c4b8b44078bbf8a6ef5b9f1ec1626c7848d9906365d0509c906044015f604051808303815f87803b1580156102b7575f5ffd5b505af11580156102c9573d5f5f3e3d5ffd5b505050505050565b5f6102dc825f610558565b92915050565b5f5f610253836004610460565b5f6102f983610579565b610309576103065f610582565b92505b61031282610579565b6103225761031f5f610582565b91505b61023f60078484601861058d565b5f6102dc825f610625565b5f61034583610579565b610355576103525f610330565b92505b61035e82610579565b61036e5761036b5f610330565b91505b61023f60048484601561058d565b5f61038683610579565b6103975761039460016102d1565b92505b6103a082610579565b6103b1576103ae60016102d1565b91505b61023f5f8484600a61058d565b5f6103c884610579565b6103d8576103d55f6102d1565b93505b6103e183610579565b6103f1576103ee5f610330565b92505b6103fa82610579565b61040a576104075f610330565b91505b6104176004858585610633565b949350505050565b5f61042983610579565b610439576104365f610330565b92505b61044282610579565b6104525761044f5f610330565b91505b61023f60048484600761058d565b604080516080810182525f8082526020820181905291810191909152606080820152604080516080810182525f8082526020820181905291810191909152606080820152838060200190518101906104b89190610a2e565b606085015260ff908116604085018190529116602084015290825261023f908461065c565b6040516313fce3b160e11b81525f9073ea30c4b8b44078bbf8a6ef5b9f1ec1626c7848d9906327f9c762906105189085903390600401610b0b565b6020604051808303815f875af1158015610534573d5f5f3e3d5ffd5b505050506040513d601f19601f820116820180604052508101906102dc9190610b7d565b5f808315610564575060015b5f610570825f86610698565b95945050505050565b5f8115156102dc565b5f6102dc825f61073d565b5f73ea30c4b8b44078bbf8a6ef5b9f1ec1626c7848d9631888debd86846105b48888610754565b604080515f815260208101918290526001600160e01b031960e087901b169091526105e59392919060248101610bce565b6020604051808303815f875af1158015610601573d5f5f3e3d5ffd5b505050506040513d601f19601f820116820180604052508101906105709190610b7d565b5f5f61041784600485610698565b5f73ea30c4b8b44078bbf8a6ef5b9f1ec1626c7848d9631888debd8660046105b48888886107c1565b8060ff168260ff1614610694576040516367cf307160e01b815260ff8084166004830152821660248201526044015b60405180910390fd5b5050565b604080515f8082526020820190925273ea30c4b8b44078bbf8a6ef5b9f1ec1626c7848d990631888debd908590601a906106de898960ff166106d98a610852565b610887565b6040518563ffffffff1660e01b81526004016106fd9493929190610bce565b6020604051808303815f875af1158015610719573d5f5f3e3d5ffd5b505050506040513d601f19601f820116820180604052508101906104179190610b7d565b5f5f610417846001600160a01b0316600785610698565b60408051600280825260608083018452925f929190602083019080368337019050509050835f1c815f8151811061078d5761078d610c28565b602002602001018181525050825f1c816001815181106107af576107af610c28565b60209081029190910101529392505050565b604080516003808252608082019092526060915f9190602082018480368337019050509050845f1c815f815181106107fb576107fb610c28565b602002602001018181525050835f1c8160018151811061081d5761081d610c28565b602002602001018181525050825f1c8160028151811061083f5761083f610c28565b6020908102919091010152949350505050565b5f5f8260030b121561087d576040516311ead17f60e31b8152600383900b600482015260240161068b565b5063ffffffff1690565b604080516003808252608082019092526060915f919060208201848036833701905050905084815f815181106108bf576108bf610c28565b60200260200101818152505083816001815181106108df576108df610c28565b602002602001018181525050828160028151811061083f5761083f610c28565b5f5f83601f84011261090f575f5ffd5b50813567ffffffffffffffff811115610926575f5ffd5b60208301915083602082850101111561093d575f5ffd5b9250929050565b5f5f5f5f5f60608688031215610958575f5ffd5b85359450602086013567ffffffffffffffff811115610975575f5ffd5b610981888289016108ff565b909550935050604086013567ffffffffffffffff8111156109a0575f5ffd5b6109ac888289016108ff565b969995985093965092949392505050565b5f5f5f604084860312156109cf575f5ffd5b83359250602084013567ffffffffffffffff8111156109ec575f5ffd5b6109f8868287016108ff565b9497909650939450505050565b805160ff81168114610a15575f5ffd5b919050565b634e487b7160e01b5f52604160045260245ffd5b5f5f5f5f60808587031215610a41575f5ffd5b84519350610a5160208601610a05565b9250610a5f60408601610a05565b9150606085015167ffffffffffffffff811115610a7a575f5ffd5b8501601f81018713610a8a575f5ffd5b805167ffffffffffffffff811115610aa457610aa4610a1a565b604051601f8201601f19908116603f0116810167ffffffffffffffff81118282101715610ad357610ad3610a1a565b604052818152828201602001891015610aea575f5ffd5b8160208401602083015e5f6020838301015280935050505092959194509250565b604081528251604082015260ff602084015116606082015260ff60408401511660808201525f6060840151608060a084015280518060c0850152806020830160e086015e5f60e0828601015260e0601f19601f8301168501019250505061023f60208301846001600160a01b03169052565b5f60208284031215610b8d575f5ffd5b5051919050565b5f8151808452602084019350602083015f5b82811015610bc4578151865260209586019590910190600101610ba6565b5093949350505050565b60ff851681525f60208510610bf157634e487b7160e01b5f52602160045260245ffd5b84602083015260806040830152610c0b6080830185610b94565b8281036060840152610c1d8185610b94565b979650505050505050565b634e487b7160e01b5f52603260045260245ffdfea2646970667358221220f74b9a1b9be9d1e244423105733a9930bf40d14f07d4bf7cfcadfbd9564da09364736f6c634300081b0033",
  "linkReferences": {},
  "deployedLinkReferences": {}
}